:1005C5000A0BEB88B3BAD87A7BA8FBFA01090301B9
:0505D5000A3B010800D3
:03055300F8E6FFC8
:02055600AD07EF
:10055800E4FBEBC394087480948050237E0074807D
:10056800A803088006CEA2E713CE13D8F8FFEDF54E
:1005780082EF558224FF9283C295D2950B80D3C215
:0305880097D29770
:01058B00224D
:1001A100EF75F00A84F515EF75F00A8485F017ED07
:1001B10075F00A84F516ED75F00A8485F018E4F5FA
:1001C10019C3E5199432748094805062C293740B00
:1001D10025181205537F057E007D007C001204BDA9
:1001E100D293C292740B25161205537F057E007DB2
:1001F100007C001204BDD292C291740B2517F8E65F
:10020100FF1205567F057E007D007C001204BDD2E1
:1002110091C290740B2515F8E6FF1205567F057EF5
:0E022100007D007C001204BDD2900519809370
:01022F0022AC
:1002300053B3DF53B4DF53B37F53B47F53B1F7539A
:10024000B2F753B3FE53B4FE53B3FD53B4FD53B3EF
:10025000FB53B4FB53B3F753B4F753B1DF53B2DFDF
:100260000508B285AD0AAF091201A1AF087E00D31F
:10027000EF943B748094804002050AAD0A7C00D361
:10028000ED943B7480948040020509D3EF943BEEDB
:10029000648094804003E4F508D3ED943BEC6480E3
:1002A00094804003E4F50AD3E509941774809480A0
:0702B00040AEE4F50980A94E
:10058C0053B1BF53B2BF53B17F53B27F7598504331
:10059C008920438780438E1053C4DFAB07AA06A97A
:1005AC0005A8047F407E427D0F7C0012003FEF04C3
:0905BC00F404F58DD28ED29922CF
:1002B7008F248E238D228C2153B1BF53B2BF53B1EC
:1002C7007F53B27F75985043878053C4F843C42047
:1002D700AB24AA23A922A8217F407E427D0F7C0060
:1002E70012003FC374FF9FFF74FF9EFEE49DFDE471
:1002F7009CFC78081200E28FC6AB24AA23A922A887
:10030700217F407E427D0F7C0012003FC374FF9F18
:09031700FF8FC543C408D29922EE
:0705DB003098FDAF99C298B2
:0105E20022F6
:0805E300C2998F993099FD22A5
:100320008F288E278D268C2553B1FB53B2FB53B3F8
:10033000BF53B4BF75F85075C40853C4DFAB28AAC7
:1003400027A926A8257F407E427D0F7C0012003F12
:10035000C374FF9FFF74FF9EFEE49DFDE49CFC7848
:10036000081200E28FC6AB28AA27A926A8257F403D
:100370007E427D0F7C0012003FC374FF9FFF8FC53C
:0403800043C4082248
:0705EB0030F8FDAF9AC2F8E1
:0105F20022E6
:0805F300C2F98F9A30F9FD22D4
:100472008F2C8E2B8D2A8C29538EF7438901D28C97
:10048200E4FFFEFDFCAB2CAA2BA92AA829C312006B
:10049200D16025758A7E758CFF308DFDC28DE52C6D
:1004A20024FFF52CE52B34FFF52BE52A34FFF52A42
:0B04B200E52934FFF52980C8C28C2228
:1004BD008F1D8E1C8D1B8C1A538EF7438901D28C88
:1004CD00E4FFFEFDFCAB1DAA1CA91BA81AC312005C
:1004DD00D16025758ACA758CFA308DFDC28DE51DEA
:1004ED0024FFF51DE51C34FFF51CE51B34FFF51B42
:0B04FD00E51A34FFF51A80C8C28C22FB
:100508008F308E2F8D2E8C2D538EEF438910D28EE7
:10051800E4FFFEFDFCAB30AA2FA92EA82DC31200C4
:10052800D16025758BEA758DCB308FFDC28FE53094
:1005380024FFF530E52F34FFF52FE52E34FFF52E97
:0B054800E52D34FFF52D80C8C28E2287
:100424008F348E338D328C3153C9BF53C9DF43C9E6
:1004340010D2CAE4FFFEFDFCAB34AA33A932A831C2
:10044400C31200D1602575CC3075CDF830CFFDC214
:10045400CFE53424FFF534E53334FFF533E53234A6
:0E046400FFF532E53134FFF53180C8C2CA22FF
:100384008F388E378D368C3575C40743C408E4FF27
:10039400FEFDFCAB38AA37A936A835C31200D160DC
:1003A4002B75C52C75C6CFE5C45410641070F85372
:1003B400C4EFE53824FFF538E53734FFF537E53683
:1003C40034FFF536E53534FFF53580C253C4F722E2
:1003D4008F3C8E3B8D3A8C3975C40743C408E4FFC7
:1003E400FEFDFCAB3CAA3BA93AA839C31200D1607C
:1003F4002B75C5D875C6FFE5C45410641070F85346
:10040400C4EFE53C24FFF53CE53B34FFF53BE53A1E
:1004140034FFF53AE53934FFF53980C253C4F72285
:030000000200F506
:1000F50075C7AA75C75575FD5A75C7AA75C75575CC
:10010500FDA5787FE4F6D8FD9000007FFF7E03E42F
:0C011500F0A3DFFCDEFA75813C02015C07
:10012100020230E493A3F8E493A34003F68001F2C2
:1001310008DFF48029E493A3F85407240CC8C333DF
:10014100C4540F4420C8834004F456800146F6DFAE
:10015100E4800B01020408102040809005C5E47E74
:10016100019360BCA3FF543F30E509541FFEE493A3
:10017100A360010ECF54C025E060A840B8E493A36A
:10018100FAE493A3F8E493A3C8C582C8CAC583CA95
:10019100F0A3C8C582C8CAC583CADFE9DEE780BE4D
:0105DA000020
:1000030075F008758200EF2FFFEE33FECD33CDCCB4
:1000130033CCC58233C5829BED9AEC99E582984037
:100023000CF582EE9BFEED9AFDEC99FC0FD5F0D614
:10003300E4CEFBE4CDFAE4CCF9A88222B800C1B93E
:100043000059BA002DEC8BF084CFCECDFCE5F0CB7C
:10005300F97818EF2FFFEE33FEED33FDEC33FCEBB5
:1000630033FB10D703994004EB99FB0FD8E5E4F970
:10007300FA227818EF2FFFEE33FEED33FDEC33FC5D
:10008300C933C910D7059BE99A4007EC9BFCE99A51
:10009300F90FD8E0E4C9FAE4CCFB2275F010EF2F96
:1000A300FFEE33FEED33FDCC33CCC833C810D70796
:1000B3009BEC9AE899400AED9BFDEC9AFCE899F8D1
:0E00C3000FD5F0DAE4CDFBE4CCFAE4C8F92264
:1000D100EB9FF5F0EA9E42F0E99D42F0E89C45F085
:0100E10022FC
:1000E200E8600FECC313FCED13FDEE13FEEF13FFFC
:0300F200D8F12220
:00000001FF
