:100856002100477569206475206C69657520746888
:10086600616E6820636F6E67004475206C696575FC
:05087600207361690020
:10087B000923008040201008040201013000022EE1
:06088B0000000221000044
:02082000AD0722
:10082200E4FBEBC394087480948050237E007480B0
:10083200A803088006CEA2E713CE13D8F8FFEDF581
:1008420082EF558224FF9283C295D2950B80D3C248
:0308520097D297A3
:010855002280
:1007AC008B088A09890AE4F54FF550AB08AA09A908
:1007BC000A120892C3E5509FE54F9E501DAB08AA44
:1007CC0009A90A855082854F83120026FF1208AFB3
:0B07DC000550E55070D5054F80D1227C
:10000300EDFB3395E0FAEB64014A700774232FF894
:10001300E64230EB4A700874232FF8E6F45230229C
:0300230002058350
:10058300C0E0C0F0C083C082C0D075D000C000C03E
:1005930001C002C003C004C005C006C00730981ADA
:1005A3001208A77431252FF8A607052FE52F70022F
:1005B300052E752100752201C298309902C299D087
:1005C30007D006D005D004D003D002D001D000D08C
:0A05D300D0D082D083D0F0D0E03207
:10018200750A00750B01E4F54FF550C3E550952D46
:10019200E52C6480F8E54F6480984003020233AB9B
:1001A20051AA52A953855082854F83120026FF33EC
:1001B20095E0FEC3EF9430EE64809480403AD3EF32
:1001C2009439EE64809480502FAE08AF097C007D94
:1001D2000A1200538E088F09855082854F831200C0
:1001E20026FF3395E0FEEF24D0FFEE34FFFEEF252D
:1001F20009F509EE3508F508AB51AA52A953855005
:1002020082854F83120026B43B07E4F50AF50B8082
:1002120012E50945086007AF09AD0B120003E4F5CA
:1002220008F5090550E550600302018D054F0201F2
:010232008D3E
:0102330022A8
:1002E00053B3DF53B4DF53B37F53B47F53B1F753EA
:1002F000B2F753B3F753B4F753B1DF53B2DF7F8094
:100300007E257D007C001207E7D299D2AFD2ACC225
:1003100093E522640145217058750BFF750C087533
:100320000D56FB7A0079311203788B518A5289532A
:100330001208928E2C8F2DAB51AA52A9531207ACE2
:100340007431252DF8E6B4210C1201827BFF7A0866
:1003500079581207AC7431252DF8E6642160097BC9
:10036000FF7A08796F1207ACE4F52EF52FF521F529
:0803700022AF30120820809931
:1007E70053B1BF53B2BF53B17F53B27F75985043D4
:1007F7008920438780438E1053C4DFAB07AA06A91D
:1008070005A8047F407E427D0F7C001200A1EF0403
:09081700F404F58DD28ED2992271
:1003F8008F1A8E198D188C1753B1BF53B2BF53B1D2
:100408007F53B27F75985043878053C4F843C42004
:10041800AB1AAA19A918A8177F407E427D0F7C0045
:100428001200A1C374FF9FFF74FF9EFEE49DFDE4CC
:100438009CFC78081201448FC6AB1AAA19A918A8FF
:10044800177F407E427D0F7C001200A1C374FF9F7E
:09045800FF8FC543C408D29922AC
:0708A7003098FDAF99C298E3
:0108AE002227
:0808AF00C2998F993099FD22D6
:100461008F1E8E1D8D1C8C1B53B1FB53B2FB53B3DE
:10047100BF53B4BF75F85075C40853C4DFAB1EAA8F
:100481001DA91CA81B7F407E427D0F7C001200A18C
:10049100C374FF9FFF74FF9EFEE49DFDE49CFC7806
:1004A100081201448FC6AB1EAA1DA91CA81B7F40C0
:1004B1007E427D0F7C001200A1C374FF9FFF8FC598
:0404C10043C4082206
:0708B70030F8FDAF9AC2F812
:0108BE002217
:0808BF00C2F98F9A30F9FD2205
:1006CB008F578E568D558C54538EF7438901D28C90
:1006DB00E4FFFEFDFCAB57AA56A955A854C3120163
:1006EB00336025758A7E758CFF308DFDC28DE55785
:1006FB0024FFF557E55634FFF556E55534FFF55510
:0B070B00E55434FFF55480C8C28C2276
:100716008F5B8E5A8D598C58538EF7438901D28C34
:10072600E4FFFEFDFCAB5BAA5AA959A858C3120107
:10073600336025758ACA758CFA308DFDC28DE55BEE
:1007460024FFF55BE55A34FFF55AE55934FFF559B0
:0B075600E55834FFF55880C8C28C2223
:100761008F5F8E5E8D5D8C5C538EEF438910D28ED0
:10077100E4FFFEFDFCAB5FAA5EA95DA85CC31201AC
:10078100336025758BEA758DCB308FFDC28FE55FA8
:1007910024FFF55FE55E34FFF55EE55D34FFF55D51
:0B07A100E55C34FFF55C80C8C28E22CE
:10067D008F638E628D618C6053C9BF53C9DF43C9CF
:10068D0010D2CAE4FFFEFDFCAB63AA62A961A860AB
:10069D00C3120133602575CC3075CDF830CFFDC256
:1006AD00CFE56324FFF563E56234FFF562E5613460
:0E06BD00FFF561E56034FFF56080C8C2CA2217
:1005DD008F678E668D658C6475C40743C408E4FF10
:1005ED00FEFDFCAB67AA66A965A864C31201336062
:1005FD002B75C52C75C6CFE5C45410641070F85317
:10060D00C4EFE56724FFF567E56634FFF566E5653C
:10061D0034FFF565E56434FFF56480C253C4F722F9
:10062D008F6B8E6A8D698C6875C40743C408E4FFAF
:10063D00FEFDFCAB6BAA6AA969A868C31201336001
:10064D002B75C5D875C6FFE5C45410641070F853EA
:10065D00C4EFE56B24FFF56BE56A34FFF56AE569D8
:10066D0034FFF569E56834FFF56880C253C4F7229D
:03000000020234C5
:1002340075C7AA75C75575FD5A75C7AA75C755758B
:10024400FDA5787FE4F6D8FD9000007FFF7E03E4EF
:0C025400F0A3DFFCDEFA75816E02029B55
:100260000202E0E493A3F8E493A34003F68001F2D2
:1002700008DFF48029E493A3F85407240CC8C3339F
:10028000C4540F4420C8834004F456800146F6DF6E
:10029000E4800B010204081020408090087BE47E7B
:1002A000019360BCA3FF543F30E509541FFEE49363
:1002B000A360010ECF54C025E060A840B8E493A32A
:1002C000FAE493A3F8E493A3C8C582C8CAC583CA55
:1002D000F0A3C8C582C8CAC583CADFE9DEE780BE0D
:010891000066
:10002600BB010CE58229F582E5833AF583E022508F
:1000360006E92582F8E622BBFE06E92582F8E222D9
:0D004600E58229F582E5833AF583E49322F3
:10005300EF8DF0A4A8F0CF8CF0A428CE8DF0A42EC1
:02006300FE227B
:1000650075F008758200EF2FFFEE33FECD33CDCC52
:1000750033CCC58233C5829BED9AEC99E5829840D5
:100085000CF582EE9BFEED9AFDEC99FC0FD5F0D6B2
:10009500E4CEFBE4CDFAE4CCF9A88222B800C1B9DC
:1000A5000059BA002DEC8BF084CFCECDFCE5F0CB1A
:1000B500F97818EF2FFFEE33FEED33FDEC33FCEB53
:1000C50033FB10D703994004EB99FB0FD8E5E4F90E
:1000D500FA227818EF2FFFEE33FEED33FDEC33FCFB
:1000E500C933C910D7059BE99A4007EC9BFCE99AEF
:1000F500F90FD8E0E4C9FAE4CCFB2275F010EF2F34
:10010500FFEE33FEED33FDCC33CCC833C810D70733
:100115009BEC9AE899400AED9BFDEC9AFCE899F86E
:0E0125000FD5F0DAE4CDFBE4CCFAE4C8F92201
:10013300EB9FF5F0EA9E42F0E99D42F0E89C45F022
:010143002299
:10014400E8600FECC313FCED13FDEE13FEEF13FF99
:03015400D8F122BD
:10089200E4FFFE120157600C0FEF70010E09E970C0
:0508A200F20A80EF22C4
:100378008B088A09890AE94A4B7009856C08856DDA
:1003880009856E0AE50A450945087002802C850B27
:1003980011850C12850D13AB08AA09A90A1204C508
:1003A800EF250AF50AEE3509F509AB08FAA90A128C
:1003B8000157700AF56CF56DF56EFBFAF922850B9D
:1003C80011850C12850D13AB08AA09A90A12052676
:1003D8008B6C8A6D896EEA494B600EE412017004D9
:1003E800256EF56EE4356DF56DAB08AA09A90A22EC
:10015700BB010689828A83E0225002E722BBFE02A6
:09016700E32289828A83E49322D9
:10017000BB010689828A83F0225002F722BBFE016E
:02018000F32268
:1004C5008B0E8A0F8910E4F514F515E4FEFFAB11C8
:1004D500AA12A9138F828E83120026FD6013AB0E1C
:1004E500AA0FA9101201576D60070FBF00010E80FA
:1004F500DDAB11AA12A9138F828E8312002670021A
:10050500801A0515E51570020514AB0E0510E510EA
:100515007002050FF9AA0F12015770AFAE14AF158F
:0105250022B3
:100526008B0E8A0F8910851114851215851316AB4B
:1005360014AA15A916120157FF6019AB0EAA0FA926
:10054600101201576F600D74012516F516E4351566
:10055600F51580DBAB14AA15A9161201576007AB77
:100566000EAA0FA91022AB0E0510E510AA0F7002F5
:0D057600050F14F912015770ADFBFAF922C0
:00000001FF
