:10065B000A08EB88B3BAD87A7BA8FBFA021400001D
:1005A6007E00CFCDCFCECCCE12000E74082FF8E64B
:0105B600FF45
:0205B700AD078E
:1005B900E4FBEBC394087480948050237E0074801C
:1005C900A803088006CEA2E713CE13D8F8FFEDF5ED
:1005D90082EF558224FF9283C295D2950B80D3C2B4
:0305E90097D2970F
:0105EC0022EC
:1004280053B1DF53B2DF53B3FE53B4FE53B3FD539E
:10043800B4FD53B3FB53B4FB53B3F753B4F753B3FF
:10044800DF53B4DF53B37F53B47F53B1F753B2F7DD
:10045800758901D2A9D2AFD28C53E8F043E805439D
:0F046800B11053B2EFE4F5F643F62043E1012261
:03000B000201559A
:10015500C0E0C0F0C082C0D075D000C000C003C0F0
:1001650004C005C006C007758CFA758ACB0515E570
:100175001570020514640545147005F5147515010F
:10018500E515640145147011D290D293AE12AF13E8
:100195007C037DE81205AEC290E515640245147036
:1001A50016D291D290AE12AF137C037DE812000EE9
:1001B5007F641205A6C291E515640345147015D236
:1001C50092D291AE12AF13FC7D6412000E7F0A121B
:1001D50005A6C292E515640445147019D293D2920E
:1001E500AE12AF13FC7D0A12000E74082DF8E6FF5F
:1001F5001205B7C293D007D006D005D004D003D0DE
:0A02050000D0D0D082D0F0D0E0325B
:10062600120428D285C2EFD2EE30EFFDAFC37512A9
:10063600008F13E513C4F8540FC868F513E512C408
:1006460054F048F512AFC2EF4213E47F64FEFDFC9E
:0506560012051080CE2A
:1005ED0053B1BF53B2BF53B17F53B27F75985043D0
:1005FD008920438780438E1053C4DFAB07AA06A919
:10060D0005A8047F407E427D0F7C0012009FEF0401
:09061D00F404F58DD28ED299226D
:1002BB008F198E188D178C1653B1BF53B2BF53B114
:1002CB007F53B27F75985043878053C4F843C42043
:1002DB00AB19AA18A917A8167F407E427D0F7C0088
:1002EB0012009FC374FF9FFF74FF9EFEE49DFDE40D
:1002FB009CFC78081201428FC6AB19AA18A917A843
:10030B00167F407E427D0F7C0012009FC374FF9FBF
:09031B00FF8FC543C408D29922EA
:070003003098FDAF99C2988F
:01000A0022D3
:08066C00C2998F993099FD221B
:100324008F1D8E1C8D1B8C1A53B1FB53B2FB53B320
:10033400BF53B4BF75F85075C40853C4DFAB1DAACE
:100344001CA91BA81A7F407E427D0F7C0012009FCF
:10035400C374FF9FFF74FF9EFEE49DFDE49CFC7844
:10036400081201428FC6AB1DAA1CA91BA81A7F4004
:100374007E427D0F7C0012009FC374FF9FFF8FC5D8
:0403840043C4082244
:0706740030F8FDAF9AC2F857
:01067B00225C
:08067C00C2F98F9A30F9FD224A
:1004C5008F248E238D228C21538EF7438901D28C64
:1004D500E4FFFEFDFCAB24AA23A922A821C3120137
:1004E500316025758A7E758CFF308DFDC28DE524C2
:1004F50024FFF524E52334FFF523E52234FFF52217
:0B050500E52134FFF52180C8C28C22E4
:100510008F388E378D368C35538EF7438901D28CC8
:10052000E4FFFEFDFCAB38AA37A936A835C312019B
:10053000316025758ACA758CFA308DFDC28DE5381B
:1005400024FFF538E53734FFF537E53634FFF53667
:0B055000E53534FFF53580C8C28C2271
:10055B008F288E278D268C25538EEF438910D28EB4
:10056B00E4FFFEFDFCAB28AA27A926A825C3120190
:10057B00316025758BEA758DCB308FFDC28FE528E9
:10058B0024FFF528E52734FFF527E52634FFF5266C
:0B059B00E52534FFF52580C8C28E2244
:100477008F2C8E2B8D2A8C2953C9BF53C9DF43C9B3
:1004870010D2CAE4FFFEFDFCAB2CAA2BA92AA8298F
:10049700C3120131602575CC3075CDF830CFFDC260
:1004A700CFE52C24FFF52CE52B34FFF52BE52A347B
:0E04B700FFF52AE52934FFF52980C8C2CA22C4
:100388008F308E2F8D2E8C2D75C40743C408E4FF43
:10039800FEFDFCAB30AA2FA92EA82DC31201316097
:1003A8002B75C52C75C6CFE5C45410641070F8536E
:1003B800C4EFE53024FFF530E52F34FFF52FE52EA7
:1003C80034FFF52EE52D34FFF52D80C253C4F722F6
:1003D8008F348E338D328C3175C40743C408E4FFE3
:1003E800FEFDFCAB34AA33A932A831C31201316037
:1003F8002B75C5D875C6FFE5C45410641070F85342
:10040800C4EFE53424FFF534E53334FFF533E53242
:1004180034FFF532E53134FFF53180C253C4F72299
:0300000002020FEA
:10020F0075C7AA75C75575FD5A75C7AA75C75575B0
:10021F00FDA5787FE4F6D8FD9000007FFF7E03E414
:0C022F00F0A3DFFCDEFA758138020276D5
:10023B00020626E493A3F8E493A34003F68001F2AD
:10024B0008DFF48029E493A3F85407240CC8C333C4
:10025B00C4540F4420C8834004F456800146F6DF93
:10026B00E4800B010204081020408090065BE47EC2
:10027B00019360BCA3FF543F30E509541FFEE49388
:10028B00A360010ECF54C025E060A840B8E493A34F
:10029B00FAE493A3F8E493A3C8C582C8CAC583CA7A
:1002AB00F0A3C8C582C8CAC583CADFE9DEE780BE32
:01066B00008E
:10000E00BC000BBE0029EF8DF084FFADF022E4CCD6
:10001E00F875F008EF2FFFEE33FEEC33FCEE9DEC9F
:10002E00984005FCEE9DFE0FD5F0E9E4CEFD22EDE5
:10003E00F8F5F0EE8420D21CFEADF075F008EF2F2F
:10004E00FFED33FD4007985006D5F0F222C398FD20
:05005E000FD5F0EA22BD
:1000630075F008758200EF2FFFEE33FECD33CDCC54
:1000730033CCC58233C5829BED9AEC99E5829840D7
:100083000CF582EE9BFEED9AFDEC99FC0FD5F0D6B4
:10009300E4CEFBE4CDFAE4CCF9A88222B800C1B9DE
:1000A3000059BA002DEC8BF084CFCECDFCE5F0CB1C
:1000B300F97818EF2FFFEE33FEED33FDEC33FCEB55
:1000C30033FB10D703994004EB99FB0FD8E5E4F910
:1000D300FA227818EF2FFFEE33FEED33FDEC33FCFD
:1000E300C933C910D7059BE99A4007EC9BFCE99AF1
:1000F300F90FD8E0E4C9FAE4CCFB2275F010EF2F36
:10010300FFEE33FEED33FDCC33CCC833C810D70735
:100113009BEC9AE899400AED9BFDEC9AFCE899F870
:0E0123000FD5F0DAE4CDFBE4CCFAE4C8F92203
:10013100EB9FF5F0EA9E42F0E99D42F0E89C45F024
:01014100229B
:10014200E8600FECC313FCED13FDEE13FEEF13FF9B
:03015200D8F122BF
:00000001FF
