:06099800253034780A004E
:100965000926313233343536373839052F353637A0
:0209750038390F
:0606D3008B088A09890A68
:1006D900D3ED9400EC64809480404DAB08050AE5A5
:1006E9000AAA097002050914F912035FFEEE620DE8
:1006F900E4FBFAE50D30E713E50E25E0FFE50D33E0
:100709006410F50DEF6421F50E800BE50E25E0F57B
:100719000EE50D33F50D0BBB00010AEB64084A70B9
:0C072900D2ED1D70AB1C80A8AE0DAF0E11
:0107350022A1
:10058B007F807E257D007C001209057B007A007937
:10059B002674FFF50DF50E7D097C001206D38E2215
:1005AB008F237B007A00792674FFF50DF50E7D0401
:1005BB007C001206D38E248F257B007A00792F8541
:1005CB00240D85250E7D057C001206D38E248F25E8
:1005DB007BFF7A09799885220B85230C1200657BAA
:1005EB00FF7A09799885240B85250C1200657FE825
:0B05FB007E037D007C0012086F8090E2
:1009050053B1BF53B2BF53B17F53B27F75985043B4
:100915008920438780438E1053C4DFAB07AA06A9FD
:1009250005A8047F407E427D0F7C001203B4EF04CE
:09093500F404F58DD28ED2992252
:100606008F1F8E1E8D1D8C1C53B1BF53B2BF53B1AD
:100616007F53B27F75985043878053C4F843C420F4
:10062600AB1FAA1EA91DA81C7F407E427D0F7C0021
:100636001203B4C374FF9FFF74FF9EFEE49DFDE4A6
:100646009CFC78081204578FC6AB1FAA1EA91DA8CA
:100656001C7F407E427D0F7C001203B4C374FF9F53
:09066600FF8FC543C408D299229C
:070978003098FDAF99C29811
:01097F002255
:08098000C2998F993099FD2204
:10066F008F378E368D358C3453B1FB53B2FB53B36A
:10067F00BF53B4BF75F85075C40853C4DFAB37AA66
:10068F0036A935A8347F407E427D0F7C001203B41B
:10069F00C374FF9FFF74FF9EFEE49DFDE49CFC78F6
:1006AF00081204578FC6AB37AA36A935A8347F4036
:1006BF007E427D0F7C001203B4C374FF9FFF8FC572
:0406CF0043C40822F6
:0709880030F8FDAF9AC2F840
:01098F002245
:08099000C2F98F9A30F9FD2233
:100824008F3B8E3A8D398C38538EF7438901D28CA5
:10083400E4FFFEFDFCAB3BAA3AA939A838C3120475
:10084400466025758A7E758CFF308DFDC28DE53B33
:1008540024FFF53BE53A34FFF53AE53934FFF53941
:0B086400E53834FFF53880C8C28C2254
:10086F008F0B8E0A8D098C08538EF7438901D28C1A
:10087F00E4FFFEFDFCAB0BAA0AA909A808C31204EA
:10088F00466025758ACA758CFA308DFDC28DE50BD1
:10089F0024FFF50BE50A34FFF50AE50934FFF509E6
:0B08AF00E50834FFF50880C8C28C2269
:1008BA008F3F8E3E8D3D8C3C538EEF438910D28EF6
:1008CA00E4FFFEFDFCAB3FAA3EA93DA83CC31204CF
:1008DA00466025758BEA758DCB308FFDC28FE53F5B
:1008EA0024FFF53FE53E34FFF53EE53D34FFF53D97
:0B08FA00E53C34FFF53C80C8C28E22B4
:1007D6008F438E428D418C4053C9BF53C9DF43C9F5
:1007E60010D2CAE4FFFEFDFCAB43AA42A941A840D1
:1007F600C3120446602575CC3075CDF830CFFDC2E6
:10080600CFE54324FFF543E54234FFF542E54134A5
:0E081600FFF541E54034FFF54080C8C2CA221C
:100736008F478E468D458C4475C40743C408E4FF35
:10074600FEFDFCAB47AA46A945A844C31204466071
:100756002B75C52C75C6CFE5C45410641070F853BC
:10076600C4EFE54724FFF547E54634FFF546E54582
:1007760034FFF545E54434FFF54480C253C4F722FF
:100786008F4B8E4A8D498C4875C40743C408E4FFD5
:10079600FEFDFCAB4BAA4AA949A848C31204466011
:1007A6002B75C5D875C6FFE5C45410641070F85390
:1007B600C4EFE54B24FFF54BE54A34FFF54AE5491E
:1007C60034FFF549E54834FFF54880C253C4F722A3
:030000000204DF18
:1004DF0075C7AA75C75575FD5A75C7AA75C75575DE
:1004EF00FDA5787FE4F6D8FD9000007FFF7E03E442
:0C04FF00F0A3DFFCDEFA75814B0205461D
:10050B0002058BE493A3F8E493A34003F68001F276
:10051B0008DFF48029E493A3F85407240CC8C333F1
:10052B00C4540F4420C8834004F456800146F6DFC0
:10053B00E4800B0102040810204080900965E47EE2
:10054B00019360BCA3FF543F30E509541FFEE493B5
:10055B00A360010ECF54C025E060A840B8E493A37C
:10056B00FAE493A3F8E493A3C8C582C8CAC583CAA7
:10057B00F0A3C8C582C8CAC583CADFE9DEE780BE5F
:01097700007F
:10035F00BB010689828A83E0225002E722BBFE029C
:09036F00E32289828A83E49322CF
:1003780075F008758200EF2FFFEE33FECD33CDCC3C
:1003880033CCC58233C5829BED9AEC99E5829840BF
:100398000CF582EE9BFEED9AFDEC99FC0FD5F0D69C
:1003A800E4CEFBE4CDFAE4CCF9A88222B800C1B9C6
:1003B8000059BA002DEC8BF084CFCECDFCE5F0CB04
:1003C800F97818EF2FFFEE33FEED33FDEC33FCEB3D
:1003D80033FB10D703994004EB99FB0FD8E5E4F9F8
:1003E800FA227818EF2FFFEE33FEED33FDEC33FCE5
:1003F800C933C910D7059BE99A4007EC9BFCE99AD9
:10040800F90FD8E0E4C9FAE4CCFB2275F010EF2F1D
:10041800FFEE33FEED33FDCC33CCC833C810D7071D
:100428009BEC9AE899400AED9BFDEC9AFCE899F858
:0E0438000FD5F0DAE4CDFBE4CCFAE4C8F922EB
:10044600EB9FF5F0EA9E42F0E99D42F0E89C45F00C
:010456002283
:10045700E8600FECC313FCED13FDEE13FEEF13FF83
:03046700D8F122A7
:10000300E517240BF8E60517227808300702780B6A
:10001300E475F0011204A902035F2000EB7F2ED2E6
:10002300008018EF540F2490D43440D4FF30040BD5
:10003300EF24BFB41A0050032461FFE518600215D2
:1000430018051BE51B7002051A30070D7808E475C7
:10005300F0011204A9EF02049702093E7403D207C8
:100063008003E4C207F5178B088A09890AE4F518A7
:10007300F51AF51BE51860077F2012003E80F57521
:1000830019FFC201C200C202C203C205C206C208EE
:1000930012000CFF700D3007057F0012004FAF1BDD
:1000A300AE1A22B4255FC2D5C20412000CFF24D0BD
:1000B300B40A00501A75F00A781830D50508B6FF4F
:1000C3000106C6A426F620D5047002D20380D924E3
:1000D300CFB41A00EF5004C2E5D20402024FD2019A
:1000E30080C6D20080C0D20280BCD2D580BAD205ED
:1000F30080B47F2012003E2002077401B51800402F
:10010300F1120003FF12003E020077D208D20680EC
:1001130095120003FB120003FA120003F94A4B7015
:100123000679207A037BFF20022EE518602A7E00E1
:100133008E8275830012046A60060EEE651970F0F4
:10014300C2D5EBC0E0EAC0E0E9C0E0EE120296D00F
:10015300E0F9D0E0FAD0E0FB12035FFF60AAEBC046
:10016300E0EAC0E0E9C0E012003ED0E02401F9D0AB
:10017300E03400FAD0E0FBE5190460DCD519D9803E
:10018300877BFF7A027992D202809C791080027970
:1001930008C206C2088008D2D5790A8004790AC247
:1001A300D5E519047002F519E4FAFDFEFF12000308
:1001B300FC7B08200113120003FD7B1030000A12A0
:1001C3000003FE120003FF7B20EC3382D592D5504F
:1001D30013C3E43000069FFFE49EFEE42001039D69
:1001E300FDE49CFCE4CBF8C201EC700CCFCECDCC8B
:1001F300E824F8F870F38017C3EF33FFEE33FEED16
:1002030033FDEC33FCEB33FB994002FB0FD8E9EBF6
:10021300300105F8D0E0C448B201C0E00AEC4D4E0D
:100223004F78207B0070C2EAB5190040BCC0E012D1
:100233000298D0F0D0E0200104C4C0E0C4B201C0F1
:10024300F0120027D0F0D5F0EB0200771204B901C9
:100253001453018E5800E54C00E14201924F019A7C
:0F02630044019A4900FA4301A0550184460184E1
:100272004501844703405000E92D00ED2E01102B6B
:1002820000F123010E2003292A00A94800000108D9
:100292003F3F3F00790AA2D5200314300509B91067
:1002A200020404B9080104A2D52006025001042068
:1002B20002689202B518005034C0E07F2030031962
:1002C2007F30A20272067205500F1202EFC202C202
:1002D20006C205C2087F30800F300503E9C0E01274
:1002E200003E300503D0E0F9D0E0B518CC30051758
:1002F2007F30B9100C12003E7F583004077F78809F
:1003020003B9080312003E3002057F2D02003E7F32
:10031200202008F87F2B2006F322920280CF286E3D
:10032200756C6C2900D2011200033001F8C2017809
:100332001830D50108F60200A92D50434958120081
:10034200032403B405004001E490033B9312002F01
:0D035200743A12002FD20375180402018EB8
:10046A00BB010CE58229F582E5833AF583E0225047
:10047A0006E92582F8E622BBFE06E92582F8E22291
:0D048A00E58229F582E5833AF583E49322AB
:10049700BB010689828A83F0225002F722BBFE0144
:0204A700F3223E
:1004A900FAE6FB0808E6F925F0F618E6CA3AF62254
:1004B900D083D082F8E4937012740193700DA3A3D2
:1004C90093F8740193F5828883E4737402936860E6
:0604D900EFA3A3A380DFE6
:10093E00EFB40A07740D120949740A309811A89978
:10094E00B8130CC2983098FDA899C298B811F63019
:07095E0099FDC299F59922F1
:00000001FF
