:040A0E0025640A0051
:060A0700C109021E0000FF
:1007910053B3DF53B4DF53B3FE53B4FE53B1FE532F
:1007A100B2FE53B1FD53B2FDA2AF920A75C7AA754D
:1007B100C75575910143B12075C7AA75C755E4F5B1
:1007C10091A20A92AF53F3EF53F3DF53F3F743F3DD
:0D07D10004D2AF439B4043F34053F47F221A
:070A0000EFF5D9EEF5D1225C
:0909D700EFF5DCEEF5D4D2DE22CE
:10093100A2AF920AC2AF75C7AA75C75543910143C9
:10094100C60475C7AA75C7555391FEA20A92AF5343
:10095100DF3F43DF0353DFFB7FFF7E0F120A00D22D
:02096100DF2293
:1008BF00E4F5B1F5B2F5B3F5B4F5ACF5ADC285120B
:1008CF00079112093153E8F043E80543B11053B2D1
:1008DF00EFE4F5F643F62043E1017F807E25FDFC32
:0908EF001208F8D29975F50222F5
:10096300C2EFD2EE30EFFDAFC3EF75F010A4F51D6B
:1009730085F01CAFC2EF421DE4AF1DAE1C1209D7B8
:0B0983007F147E007D007C000208292C
:1009B5001208BF1209637BFF7A0A790E851C0B8525
:1009C5001D0C1200B07F647E007D007C001208299A
:0209D50080E1BF
:03004B00020003AD
:10000300C0E0C0D075D000C00753F47FE51F451E84
:10001300700EAFF5EF64017013E51CFF8FF5800CD4
:10002300E51F6401451E7004E51DF5F5051FE51F79
:100033007002051E6403451E7007F51EF51F75F556
:0800430002D007D0D0D0E0325A
:1008F80053B1BF53B2BF53B17F53B27F75985043C2
:100908008920438780438E1053C4DFAB07AA06A90A
:1009180005A8047F407E427D0F7C001203E6EF04A9
:09092800F404F58DD28ED299225F
:1005D6008F258E248D238C2253B1BF53B2BF53B1C6
:1005E6007F53B27F75985043878053C4F843C42025
:1005F600AB25AA24A923A8227F407E427D0F7C003A
:100606001203E6C374FF9FFF74FF9EFEE49DFDE4A4
:100616009CFC78081204898FC6AB25AA24A923A8B6
:10062600227F407E427D0F7C001203E6C374FF9F4B
:09063600FF8FC543C408D29922CC
:0709E0003098FDAF99C298A9
:0109E70022ED
:0809E800C2998F993099FD229C
:10063F008F298E288D278C2653B1FB53B2FB53B3D2
:10064F00BF53B4BF75F85075C40853C4DFAB29AAA4
:10065F0028A927A8267F407E427D0F7C001203E643
:10066F00C374FF9FFF74FF9EFEE49DFDE49CFC7826
:10067F00081204898FC6AB29AA28A927A8267F406C
:10068F007E427D0F7C001203E6C374FF9FFF8FC570
:04069F0043C4082226
:0709F00030F8FDAF9AC2F8D8
:0109F70022DD
:0809F800C2F98F9A30F9FD22CB
:1007DE008F2D8E2C8D2B8C2A538EF7438901D28C24
:1007EE00E4FFFEFDFCAB2DAA2CA92BA82AC31204F4
:1007FE00786025758A7E758CFF308DFDC28DE52D56
:10080E0024FFF52DE52C34FFF52CE52B34FFF52BCD
:0B081E00E52A34FFF52A80C8C28C22B6
:100829008F0B8E0A8D098C08538EF7438901D28C60
:10083900E4FFFEFDFCAB0BAA0AA909A808C3120430
:10084900786025758ACA758CFA308DFDC28DE50BE5
:1008590024FFF50BE50A34FFF50AE50934FFF5092C
:0B086900E50834FFF50880C8C28C22AF
:100874008F318E308D2F8C2E538EEF438910D28E74
:10088400E4FFFEFDFCAB31AA30A92FA82EC312044D
:10089400786025758BEA758DCB308FFDC28FE5317D
:1008A40024FFF531E53034FFF530E52F34FFF52F23
:0B08B400E52E34FFF52E80C8C28E2216
:100743008F358E348D338C3253C9BF53C9DF43C9C0
:1007530010D2CAE4FFFEFDFCAB35AA34A933A8329C
:10076300C3120478602575CC3075CDF830CFFDC247
:10077300CFE53524FFF535E53434FFF534E533347F
:0E078300FFF533E53234FFF53280C8C2CA22DA
:1006A3008F398E388D378C3675C40743C408E4FF01
:1006B300FEFDFCAB39AA38A937A836C3120478600B
:1006C3002B75C52C75C6CFE5C45410641070F85350
:1006D300C4EFE53924FFF539E53834FFF538E5375C
:1006E30034FFF537E53634FFF53680C253C4F722BD
:1006F3008F3D8E3C8D3B8C3A75C40743C408E4FFA1
:10070300FEFDFCAB3DAA3CA93BA83AC312047860AA
:100713002B75C5D875C6FFE5C45410641070F85323
:10072300C4EFE53D24FFF53DE53C34FFF53CE53BF7
:1007330034FFF53BE53A34FFF53A80C253C4F72260
:0300000002052ACC
:10052A0075C7AA75C75575FD5A75C7AA75C7557592
:10053A00FDA5787FE4F6D8FD9000007FFF7E03E4F6
:0C054A00F0A3DFFCDEFA75813D02059194
:100556000209B5E493A3F8E493A34003F68001F2FD
:1005660008DFF48029E493A3F85407240CC8C333A6
:10057600C4540F4420C8834004F456800146F6DF75
:10058600E4800B0102040810204080900A07E47EF4
:10059600019360BCA3FF543F30E509541FFEE4936A
:1005A600A360010ECF54C025E060A840B8E493A331
:1005B600FAE493A3F8E493A3C8C582C8CAC583CA5C
:1005C600F0A3C8C582C8CAC583CADFE9DEE780BE14
:010A0D0000E8
:1003AA0075F008758200EF2FFFEE33FECD33CDCC0A
:1003BA0033CCC58233C5829BED9AEC99E58298408D
:1003CA000CF582EE9BFEED9AFDEC99FC0FD5F0D66A
:1003DA00E4CEFBE4CDFAE4CCF9A88222B800C1B994
:1003EA000059BA002DEC8BF084CFCECDFCE5F0CBD2
:1003FA00F97818EF2FFFEE33FEED33FDEC33FCEB0B
:10040A0033FB10D703994004EB99FB0FD8E5E4F9C5
:10041A00FA227818EF2FFFEE33FEED33FDEC33FCB2
:10042A00C933C910D7059BE99A4007EC9BFCE99AA6
:10043A00F90FD8E0E4C9FAE4CCFB2275F010EF2FEB
:10044A00FFEE33FEED33FDCC33CCC833C810D707EB
:10045A009BEC9AE899400AED9BFDEC9AFCE899F826
:0E046A000FD5F0DAE4CDFBE4CCFAE4C8F922B9
:10047800EB9FF5F0EA9E42F0E99D42F0E89C45F0DA
:010488002251
:10048900E8600FECC313FCED13FDEE13FEEF13FF51
:03049900D8F12275
:10004E00E517240BF8E60517227808300702780B1F
:10005E00E475F0011204F402049C2000EB7F2ED212
:10006E00008018EF540F2490D43440D4FF30040B8A
:10007E00EF24BFB41A0050032461FFE51860021587
:10008E0018051BE51B7002051A30070D7808E4757C
:10009E00F0011204F4EF0204E202098E7403D20797
:1000AE008003E4C207F5178B088A09890AE4F5185C
:1000BE00F51AF51BE51860077F2012008980F5758B
:1000CE0019FFC201C200C202C203C205C206C208A3
:1000DE00120057FF700D3007057F0012009AAF1BFC
:1000EE00AE1A22B4255FC2D5C204120057FF24D027
:1000FE00B40A00501A75F00A781830D50508B6FF04
:10010E000106C6A426F620D5047002D20380D92497
:10011E00CFB41A00EF5004C2E5D20402029AD20103
:10012E0080C6D20080C0D20280BCD2D580BAD205A1
:10013E0080B47F201200892002077401B518004098
:10014E00F112004EFF1200890200C2D208D20680C0
:10015E009512004EFB12004EFA12004EF94A4B70E9
:10016E0006796B7A037BFF20022EE518602A7E004B
:10017E008E827583001204B560060EEE651970F05E
:10018E00C2D5EBC0E0EAC0E0E9C0E0EE1202E1D079
:10019E00E0F9D0E0FAD0E0FB12049CFF60AAEBC0BD
:1001AE00E0EAC0E0E9C0E0120089D0E02401F9D015
:1001BE00E03400FAD0E0FBE5190460DCD519D980F3
:1001CE00877BFF7A0279DDD202809C7910800279DA
:1001DE0008C206C2088008D2D5790A8004790AC2FC
:1001EE00D5E519047002F519E4FAFDFEFF12004E72
:1001FE00FC7B0820011312004EFD7B1030000A120A
:10020E00004EFE12004EFF7B20EC3382D592D5506D
:10021E0013C3E43000069FFFE49EFEE42001039D1D
:10022E00FDE49CFCE4CBF8C201EC700CCFCECDCC3F
:10023E00E824F8F870F38017C3EF33FFEE33FEEDCA
:10024E0033FDEC33FCEB33FB994002FB0FD8E9EBAB
:10025E00300105F8D0E0C448B201C0E00AEC4D4EC2
:10026E004F78207B0070C2EAB5190040BCC0E01286
:10027E0002E3D0F0D0E0200104C4C0E0C4B201C05B
:10028E00F0120072D0F0D5F0EB0200C2120504019C
:10029E005F5301D95801304C012C4201DD4F01E56D
:0F02AE004401E54901454301EB5501CF4601CF1E
:1002BD004501CF47038B5001342D01382E015B2BA7
:1002CD00013C2301592003742A00F4480000015316
:1002DD003F3F3F00790AA2D5200314300509B9101C
:1002ED00020404B9080104A2D5200602500104201D
:1002FD0002689202B518005034C0E07F2030031917
:10030D007F30A20272067205500F12033AC202C26A
:10031D0006C205C2087F30800F300503E9C0E01228
:10032D000089300503D0E0F9D0E0B518CC300517C1
:10033D007F30B9100C1200897F583004077F788008
:10034D0003B908031200893002057F2D0200897F51
:10035D00202008F87F2B2006F322920280CF286EF2
:10036D00756C6C2900D20112004E3001F8C2017873
:10037D001830D50108F60200F42D504349581200EB
:10038D004E2403B405004001E49003869312007AD5
:0D039D00743A12007AD2037518040201D9D7
:10049C00BB010689828A83E0225002E722BBFE025E
:0904AC00E32289828A83E4932291
:1004B500BB010CE58229F582E5833AF583E02250FC
:1004C50006E92582F8E622BBFE06E92582F8E22246
:0D04D500E58229F582E5833AF583E4932260
:1004E200BB010689828A83F0225002F722BBFE01F9
:0204F200F322F3
:1004F400FAE6FB0808E6F925F0F618E6CA3AF62209
:10050400D083D082F8E4937012740193700DA3A386
:1005140093F8740193F5828883E47374029368609A
:06052400EFA3A3A380DF9A
:10098E00EFB40A07740D120999740A309811A899D8
:10099E00B8130CC2983098FDA899C298B811F630C9
:0709AE0099FDC299F59922A1
:00000001FF
