:0405BF00020D007BAE
:030023000202D7FF
:1002D700C0E0C0F0C083C082C0D075D000C000C0ED
:1002E70001C002C003C004C005C006C00730981A89
:1002F7001200188F0FE50FB43102D285E50FB43025
:1003070002C285AF0F1205A7C298309902C299D0D1
:1003170007D006D005D004D003D002D001D000D03A
:0A032700D0D082D083D0F0D0E032B5
:060500008B108A11891224
:100506001200038E158F16E4F513F514C3E5149542
:1005160016E5156480F8E513648098501DAB10AAA3
:1005260011A912851482851383120026FF1205A7CE
:0A0536000514E51470D6051380D2F9
:010540002298
:10057A007F807E257D007C0012054153B1DF53B296
:10058A00DFC299D2ACD2AF7B007A0079081205009B
:0D059A007FC87E007D007C0012046A80EAAC
:1005410053B1BF53B2BF53B17F53B27F759850437C
:100551008920438780438E1053C4DFAB07AA06A9C5
:1005610005A8047F407E427D0F7C0012008FEF04BE
:09057100F404F58DD28ED299221A
:10020A008F1A8E198D188C1753B1BF53B2BF53B1C1
:10021A007F53B27F75985043878053C4F843C420F4
:10022A00AB1AAA19A918A8177F407E427D0F7C0035
:10023A0012008FC374FF9FFF74FF9EFEE49DFDE4CE
:10024A009CFC78081201328FC6AB1AAA19A918A801
:10025A00177F407E427D0F7C0012008FC374FF9F80
:09026A00FF8FC543C408D299229C
:070018003098FDAF99C2987A
:01001F0022BE
:0805A700C2998F993099FD22E1
:100273008F1E8E1D8D1C8C1B53B1FB53B2FB53B3CE
:10028300BF53B4BF75F85075C40853C4DFAB1EAA7F
:100293001DA91CA81B7F407E427D0F7C0012008F8E
:1002A300C374FF9FFF74FF9EFEE49DFDE49CFC78F6
:1002B300081201328FC6AB1EAA1DA91CA81B7F40C2
:1002C3007E427D0F7C0012008FC374FF9FFF8FC59A
:0402D30043C40822F6
:0705AF0030F8FDAF9AC2F81D
:0105B6002222
:0805B700C2F98F9A30F9FD2210
:10041F008F248E238D228C21538EF7438901D28C0A
:10042F00E4FFFEFDFCAB24AA23A922A821C31201DD
:10043F00216025758A7E758CFF308DFDC28DE52478
:10044F0024FFF524E52334FFF523E52234FFF522BD
:0B045F00E52134FFF52180C8C28C228B
:10046A008F138E128D118C10538EF7438901D28C03
:10047A00E4FFFEFDFCAB13AA12A911A810C31201D6
:10048A00216025758ACA758CFA308DFDC28DE513F7
:10049A0024FFF513E51234FFF512E51134FFF511C7
:0B04AA00E51034FFF51080C8C28C2262
:1004B5008F288E278D268C25538EEF438910D28E5B
:1004C500E4FFFEFDFCAB28AA27A926A825C3120137
:1004D500216025758BEA758DCB308FFDC28FE528A0
:1004E50024FFF528E52734FFF527E52634FFF52613
:0B04F500E52534FFF52580C8C28E22EB
:1003D1008F2C8E2B8D2A8C2953C9BF53C9DF43C95A
:1003E10010D2CAE4FFFEFDFCAB2CAA2BA92AA82936
:1003F100C3120121602575CC3075CDF830CFFDC217
:10040100CFE52C24FFF52CE52B34FFF52BE52A3421
:0E041100FFF52AE52934FFF52980C8C2CA226A
:100331008F308E2F8D2E8C2D75C40743C408E4FF9A
:10034100FEFDFCAB30AA2FA92EA82DC312012160FE
:100351002B75C52C75C6CFE5C45410641070F853C5
:10036100C4EFE53024FFF530E52F34FFF52FE52EFE
:1003710034FFF52EE52D34FFF52D80C253C4F7224D
:100381008F348E338D328C3175C40743C408E4FF3A
:10039100FEFDFCAB34AA33A932A831C3120121609E
:1003A1002B75C5D875C6FFE5C45410641070F85399
:1003B100C4EFE53424FFF534E53334FFF533E5329A
:1003C10034FFF532E53134FFF53180C253C4F722F1
:0300000002015E9C
:10015E0075C7AA75C75575FD5A75C7AA75C7557562
:10016E00FDA5787FE4F6D8FD9000007FFF7E03E4C6
:0C017E00F0A3DFFCDEFA7581340201C53D
:10018A0002057AE493A3F8E493A34003F68001F20C
:10019A0008DFF48029E493A3F85407240CC8C33376
:1001AA00C4540F4420C8834004F456800146F6DF45
:1001BA00E4800B01020408102040809005BFE47E11
:1001CA00019360BCA3FF543F30E509541FFEE4933A
:1001DA00A360010ECF54C025E060A840B8E493A301
:1001EA00FAE493A3F8E493A3C8C582C8CAC583CA2C
:1001FA00F0A3C8C582C8CAC583CADFE9DEE780BEE4
:0105C3000037
:10002600BB010CE58229F582E5833AF583E022508F
:1000360006E92582F8E622BBFE06E92582F8E222D9
:0D004600E58229F582E5833AF583E49322F3
:1000530075F008758200EF2FFFEE33FECD33CDCC64
:1000630033CCC58233C5829BED9AEC99E5829840E7
:100073000CF582EE9BFEED9AFDEC99FC0FD5F0D6C4
:10008300E4CEFBE4CDFAE4CCF9A88222B800C1B9EE
:100093000059BA002DEC8BF084CFCECDFCE5F0CB2C
:1000A300F97818EF2FFFEE33FEED33FDEC33FCEB65
:1000B30033FB10D703994004EB99FB0FD8E5E4F920
:1000C300FA227818EF2FFFEE33FEED33FDEC33FC0D
:1000D300C933C910D7059BE99A4007EC9BFCE99A01
:1000E300F90FD8E0E4C9FAE4CCFB2275F010EF2F46
:1000F300FFEE33FEED33FDCC33CCC833C810D70746
:100103009BEC9AE899400AED9BFDEC9AFCE899F880
:0E0113000FD5F0DAE4CDFBE4CCFAE4C8F92213
:10012100EB9FF5F0EA9E42F0E99D42F0E89C45F034
:0101310022AB
:10013200E8600FECC313FCED13FDEE13FEEF13FFAB
:03014200D8F122CF
:10000300E4FFFE120145600C0FEF70010E09E97069
:05001300F20A80EF225B
:10014500BB010689828A83E0225002E722BBFE02B8
:09015500E32289828A83E49322EB
:00000001FF
