:1006A00009270080402010080402010134000230B4
:0A06B00000000221000002320000E9
:02066A00AD07DA
:10066C00E4FBEBC394087480948050237E00748068
:10067C00A803088006CEA2E713CE13D8F8FFEDF539
:10068C0082EF558224FF9283C295D2950B80D3C200
:03069C0097D2975B
:01069F002238
:10000300EDFB3395E0FAEB64014A700774272FF890
:10001300E64234EB4A700874272FF8E6F452342290
:1005F6008B718A728973E4F567F568AB71AA72A983
:10060600731206BBC3E5689FE5679E501DAB71AAD2
:1006160072A973856882856783120026FF1206D841
:0B0626000568E56870D5056780D122EB
:10021C00E4F567F568D3E5689524E5236480F8E593
:10022C00676480985071AF6874352FF8E6FEB46F30
:10023C001A74362FF8E6FFB46E0875250075260182
:10024C008009EFB46605E4F525F526EEC39430403D
:10025C002F74352568F8E6FBD394395023AE32AFB2
:10026C00337C007D0A1200538E328F33EB24D0FF87
:10027C00E434FFFEEF2533F533EE3532F532800CE6
:10028C00AF33AD26120003E4F532F5330568E568AB
:08029C007083056702022122B4
:1003CF0053B3DF53B4DF53B37F53B47F53B1F753FA
:1003DF00B2F753B3F753B4F753B1DF53B2DF7F80A4
:1003EF007E257D007C00120631D2AFD2ACC293E5E0
:1003FF002264014521701AFB7A0079351205F685C2
:10040F00302385312412021CE4F530F531F521F546
:08041F0022AF3412066A80D7F7
:0300230002037164
:10037100C0E0C0D075D000C000C007309842C2981C
:10038100AF3174352FF8A69974352FF8E6FFB426EE
:10039100087530007531008014EFB4210875210013
:1003A10075220180080531E53170020530D3E53150
:1003B1009432E530648094804006753000753100D8
:0E03C100309902C299D007D000D0D0D0E032DF
:1006310053B1BF53B2BF53B17F53B27F759850438B
:100641008920438780438E1053C4DFAB07AA06A9D4
:1006510005A8047F407E427D0F7C001200A1EF04BB
:09066100F404F58DD28ED2992229
:1002A4008F0B8E0A8D098C0853B1BF53B2BF53B163
:1002B4007F53B27F75985043878053C4F843C4205A
:1002C400AB0BAA0AA909A8087F407E427D0F7C00D7
:1002D4001200A1C374FF9FFF74FF9EFEE49DFDE422
:1002E4009CFC78081201448FC6AB0BAA0AA909A882
:1002F400087F407E427D0F7C001200A1C374FF9FE3
:09030400FF8FC543C408D2992201
:0706D0003098FDAF99C298BC
:0106D7002200
:0806D800C2998F993099FD22AF
:10030D008F0F8E0E8D0D8C0C53B1FB53B2FB53B36F
:10031D00BF53B4BF75F85075C40853C4DFAB0FAAF3
:10032D000EA90DA80C7F407E427D0F7C001200A10E
:10033D00C374FF9FFF74FF9EFEE49DFDE49CFC785B
:10034D00081201448FC6AB0FAA0EA90DA80C7F4051
:10035D007E427D0F7C001200A1C374FF9FFF8FC5ED
:04036D0043C408225B
:0706E00030F8FDAF9AC2F8EB
:0106E70022F0
:0806E800C2F98F9A30F9FD22DE
:100515008F138E128D118C10538EF7438901D28C57
:10052500E4FFFEFDFCAB13AA12A911A810C312012A
:10053500336025758A7E758CFF308DFDC28DE51380
:1005450024FFF513E51234FFF512E51134FFF5111B
:0B055500E51034FFF51080C8C28C22B6
:100560008F178E168D158C14538EF7438901D28CFC
:10057000E4FFFEFDFCAB17AA16A915A814C31201CF
:10058000336025758ACA758CFA308DFDC28DE517EA
:1005900024FFF517E51634FFF516E51534FFF515BC
:0B05A000E51434FFF51480C8C28C2263
:1005AB008F1B8E1A8D198C18538EEF438910D28E98
:1005BB00E4FFFEFDFCAB1BAA1AA919A818C3120174
:1005CB00336025758BEA758DCB308FFDC28FE51BA4
:1005DB0024FFF51BE51A34FFF51AE51934FFF5195D
:0B05EB00E51834FFF51880C8C28E220E
:1004C7008F1F8E1E8D1D8C1C53C9BF53C9DF43C997
:1004D70010D2CAE4FFFEFDFCAB1FAA1EA91DA81C73
:1004E700C3120133602575CC3075CDF830CFFDC20E
:1004F700CFE51F24FFF51FE51E34FFF51EE51D346C
:0E050700FFF51DE51C34FFF51C80C8C2CA229A
:100427008F6C8E6B8D6A8C6975C40743C408E4FFB3
:10043700FEFDFCAB6CAA6BA96AA869C31201336005
:100447002B75C52C75C6CFE5C45410641070F853CE
:10045700C4EFE56C24FFF56CE56B34FFF56BE56ADB
:1004670034FFF56AE56934FFF56980C253C4F722A2
:100477008F708E6F8D6E8C6D75C40743C408E4FF53
:10048700FEFDFCAB70AA6FA96EA86DC312013360A5
:100497002B75C5D875C6FFE5C45410641070F853A2
:1004A700C4EFE57024FFF570E56F34FFF56FE56E77
:1004B70034FFF56EE56D34FFF56D80C253C4F72246
:030000000201708A
:1001700075C7AA75C75575FD5A75C7AA75C7557550
:10018000FDA5787FE4F6D8FD9000007FFF7E03E4B4
:0C019000F0A3DFFCDEFA7581730201D7DA
:10019C000203CFE493A3F8E493A34003F68001F2A7
:1001AC0008DFF48029E493A3F85407240CC8C33364
:1001BC00C4540F4420C8834004F456800146F6DF33
:1001CC00E4800B01020408102040809006A0E47E1D
:1001DC00019360BCA3FF543F30E509541FFEE49328
:1001EC00A360010ECF54C025E060A840B8E493A3EF
:1001FC00FAE493A3F8E493A3C8C582C8CAC583CA1A
:10020C00F0A3C8C582C8CAC583CADFE9DEE780BED1
:0106BA00003F
:10002600BB010CE58229F582E5833AF583E022508F
:1000360006E92582F8E622BBFE06E92582F8E222D9
:0D004600E58229F582E5833AF583E49322F3
:10005300EF8DF0A4A8F0CF8CF0A428CE8DF0A42EC1
:02006300FE227B
:1000650075F008758200EF2FFFEE33FECD33CDCC52
:1000750033CCC58233C5829BED9AEC99E5829840D5
:100085000CF582EE9BFEED9AFDEC99FC0FD5F0D6B2
:10009500E4CEFBE4CDFAE4CCF9A88222B800C1B9DC
:1000A5000059BA002DEC8BF084CFCECDFCE5F0CB1A
:1000B500F97818EF2FFFEE33FEED33FDEC33FCEB53
:1000C50033FB10D703994004EB99FB0FD8E5E4F90E
:1000D500FA227818EF2FFFEE33FEED33FDEC33FCFB
:1000E500C933C910D7059BE99A4007EC9BFCE99AEF
:1000F500F90FD8E0E4C9FAE4CCFB2275F010EF2F34
:10010500FFEE33FEED33FDCC33CCC833C810D70733
:100115009BEC9AE899400AED9BFDEC9AFCE899F86E
:0E0125000FD5F0DAE4CDFBE4CCFAE4C8F92201
:10013300EB9FF5F0EA9E42F0E99D42F0E89C45F022
:010143002299
:10014400E8600FECC313FCED13FDEE13FEEF13FF99
:03015400D8F122BD
:1006BB00E4FFFE120157600C0FEF70010E09E97099
:0506CB00F20A80EF229D
:10015700BB010689828A83E0225002E722BBFE02A6
:09016700E32289828A83E49322D9
:00000001FF
