:0B053F000909313233343536373839C2
:03045600E4FFFEC2
:100459008F31E4F532C3E532940874809480501BDF
:10046900E5315480600BE53125E0F53163310780D2
:1004790006E53125E0F531053280DA74002FF58281
:0804890074003EF583E531F03B
:0D0491000FBF00010EE4B507BFEEB401BBC4
:01049E00223B
:06049F008B318A32893323
:0D04A500E4FFD3ED9400EC648094804026C9
:1004B200AB310533E533AA327002053214F912006A
:0F04C200036FF5342400F582E43400F583E0FF86
:0704D100ED1D70D21C80CF6D
:0104D8002201
:100512007F807E257D007C001204D91204567B0068
:100522007A0079097D097C0012049F8F0812055315
:0D0532007FE87E037D007C001203C080E1A5
:1004D90053B1BF53B2BF53B17F53B27F75985043E5
:1004E9008920438780438E1053C4DFAB07AA06A92E
:1004F90005A8047F407E427D0F7C00120058EF045E
:09050900F404F58DD28ED2992282
:1001BA008F158E148D138C1253B1BF53B2BF53B126
:1001CA007F53B27F75985043878053C4F843C42045
:1001DA00AB15AA14A913A8127F407E427D0F7C009A
:1001EA00120058C374FF9FFF74FF9EFEE49DFDE456
:1001FA009CFC78081200FB8FC6AB15AA14A913A899
:10020A00127F407E427D0F7C00120058C374FF9F0C
:09021A00FF8FC543C408D29922EC
:07054B003098FDAF99C29842
:010552002286
:08055300C2998F993099FD2235
:100223008F198E188D178C1653B1FB53B2FB53B332
:10023300BF53B4BF75F85075C40853C4DFAB19AAD4
:1002430018A917A8167F407E427D0F7C0012005824
:10025300C374FF9FFF74FF9EFEE49DFDE49CFC7846
:10026300081200FB8FC6AB19AA18A917A8167F405E
:100273007E427D0F7C00120058C374FF9FFF8FC521
:0402830043C4082246
:07055B0030F8FDAF9AC2F871
:010562002276
:08056300C2F98F9A30F9FD2264
:100375008F1D8E1C8D1B8C1A538EF7438901D28CD1
:10038500E4FFFEFDFCAB1DAA1CA91BA81AC31200A5
:10039500EA6025758A7E758CFF308DFDC28DE51D61
:1003A50024FFF51DE51C34FFF51CE51B34FFF51B8B
:0B03B500E51A34FFF51A80C8C28C2244
:1003C0008F348E338D328C31538EF7438901D28C2A
:1003D000E4FFFEFDFCAB34AA33A932A831C31200FE
:1003E000EA6025758ACA758CFA308DFDC28DE534B8
:1003F00024FFF534E53334FFF533E53234FFF532CD
:0B040000E53134FFF53180C8C28C22CA
:10040B008F248E238D228C21538EEF438910D28E15
:10041B00E4FFFEFDFCAB24AA23A922A821C31200F2
:10042B00EA6025758BEA758DCB308FFDC28FE52485
:10043B0024FFF524E52334FFF523E52234FFF522D1
:0B044B00E52134FFF52180C8C28E229D
:100327008F288E278D268C2553C9BF53C9DF43C914
:1003370010D2CAE4FFFEFDFCAB28AA27A926A825F0
:10034700C31200EA602575CC3075CDF830CFFDC2F9
:10035700CFE52824FFF528E52734FFF527E52634E0
:0E036700FFF526E52534FFF52580C8C2CA2221
:100287008F2C8E2B8D2A8C2975C40743C408E4FF55
:10029700FEFDFCAB2CAA2BA92AA829C31200EA60F1
:1002A7002B75C52C75C6CFE5C45410641070F85370
:1002B700C4EFE52C24FFF52CE52B34FFF52BE52ABD
:1002C70034FFF52AE52934FFF52980C253C4F72204
:1002D7008F308E2F8D2E8C2D75C40743C408E4FFF5
:1002E700FEFDFCAB30AA2FA92EA82DC31200EA6091
:1002F7002B75C5D875C6FFE5C45410641070F85344
:10030700C4EFE53024FFF530E52F34FFF52FE52E58
:1003170034FFF52EE52D34FFF52D80C253C4F722A7
:0300000002010EEC
:10010E0075C7AA75C75575FD5A75C7AA75C75575B2
:10011E00FDA5787FE4F6D8FD9000007FFF7E03E416
:0C012E00F0A3DFFCDEFA758134020175DD
:10013A00020512E493A3F8E493A34003F68001F2C4
:10014A0008DFF48029E493A3F85407240CC8C333C6
:10015A00C4540F4420C8834004F456800146F6DF95
:10016A00E4800B010204081020408090053FE47EE1
:10017A00019360BCA3FF543F30E509541FFEE4938A
:10018A00A360010ECF54C025E060A840B8E493A351
:10019A00FAE493A3F8E493A3C8C582C8CAC583CA7C
:1001AA00F0A3C8C582C8CAC583CADFE9DEE780BE34
:01054A0000B0
:10000300BB010689828A83E0225002E722BBFE02FB
:09001300E32289828A83E493222E
:10001C0075F008758200EF2FFFEE33FECD33CDCC9B
:10002C0033CCC58233C5829BED9AEC99E58298401E
:10003C000CF582EE9BFEED9AFDEC99FC0FD5F0D6FB
:10004C00E4CEFBE4CDFAE4CCF9A88222B800C1B925
:10005C000059BA002DEC8BF084CFCECDFCE5F0CB63
:10006C00F97818EF2FFFEE33FEED33FDEC33FCEB9C
:10007C0033FB10D703994004EB99FB0FD8E5E4F957
:10008C00FA227818EF2FFFEE33FEED33FDEC33FC44
:10009C00C933C910D7059BE99A4007EC9BFCE99A38
:1000AC00F90FD8E0E4C9FAE4CCFB2275F010EF2F7D
:1000BC00FFEE33FEED33FDCC33CCC833C810D7077D
:1000CC009BEC9AE899400AED9BFDEC9AFCE899F8B8
:0E00DC000FD5F0DAE4CDFBE4CCFAE4C8F9224B
:1000EA00EB9FF5F0EA9E42F0E99D42F0E89C45F06C
:0100FA0022E3
:1000FB00E8600FECC313FCED13FDEE13FEEF13FFE3
:03010B00D8F12206
:00000001FF
