:1012CC003A006C6564003B006F6E002C006F666624
:0B12DC000048656C6C6F000A002100E8
:1012A9000933008040201008040201013E00023F7A
:1012B90000000221000002230000023C0000022578
:0212C900000023
:02127300AD07C5
:10127500E4FBEBC394087480948050237E00748053
:10128500A803088006CEA2E713CE13D8F8FFEDF524
:1012950082EF558224FF9283C295D2950B80D3C2EB
:0312A50097D29746
:0112A8002223
:060AF300AB2DAA2EA92F75
:060AF9008B088A09890A3E
:100AFF001212E78E0D8F0EE4F50FF510E50E24FFA1
:100B0F00F50CE50D34FFF50BC3E50B6480948050B5
:100B1F0003020BA6E50E950CCFE50D950BCF24FF29
:100B2F00FDEF34FFFC1202298F188E178D168C15CE
:100B3F007F007E007D207C411209DCC004C005C00F
:100B4F0006C007AB08AA09A90A850C82850B831278
:100B5F00047424D0FDE434FFFC120229D003D00228
:100B6F00D001D00012011EC004C005C006C007ACE2
:100B7F000FAD10EC120229D003D002D001D0001219
:100B8F00002D1202628E0F8F10E50C150C60030200
:0B0B9F000B17150B020B17AE0FAF1069
:010BAA002228
:10000300EDFB3395E0FAEB64014A700774332FF884
:10001300E6423EEB4A700874332FF8E6F4523E2270
:100FDF00E5406401453F7048E522640145217008F2
:100FEF00120AF37D01120003E52245217008120A4F
:100FFF00F3E4FD120003E52464014523700EAB30CA
:10100F00AA31A932120AF97D01120003E524452302
:10101F00700EAB30AA31A932120AF9E4FD120003A7
:01102F00229E
:1011FF008B088A09890AE4F55FF560AB08AA09A98B
:10120F000A1212E7C3E5609FE55F9E501DAB08AA67
:10121F0009A90A856082855F83120474FF12130483
:0B122F000560E56070D5055F80D122EE
:1008BC00750BFF750C12750DCCAB27AA28A9291244
:1008CC000D7A8B278A288929A801AC02AD037BFFFE
:1008DC007A1279CE12073FEF3395E04F7005F53F52
:1008EC00754001750BFF750C12750DD27B007A00EB
:1008FC007900120D7A8B278A288929750BFF750CC4
:10090C0012750DD27B007A007900120D7A8B2A8A2F
:10091C002B892C750BFF750C12750DCCAB27AA28E7
:10092C00A929120D7A8B278A288929A801AC02AD36
:10093C00037BFF7A1279D412073FEF3395E04F70A7
:10094C0005F521752201E529452845276023750BFE
:10095C00FF750C12750DD77B007A007900120D7A99
:10096C008B278A2889298B2D8A2E892F120FDF80BD
:10097C00D5750BFF750C12750DCCAB2AAA2BA92CB7
:10098C00120D7A8B2A8A2B892CA801AC02AD037B21
:10099C00FF7A1279D912073FEF3395E04F7005F5C6
:1009AC0021752201E52C452B452A6023750BFF751B
:1009BC000C12750DD77B007A007900120D7A8B2AF8
:1009CC008A2B892C8B308A318932120FDF80D52209
:03002300020F8544
:100F8500C0E0C0F0C083C082C0D075D000C000C032
:100F950001C002C003C004C005C006C00730981ACE
:100FA5001212FC7441253DF8A607053DE53D70028A
:100FB500053C752500752601C298309902C299D065
:100FC50007D006D005D004D003D002D001D000D080
:0A0FD500D0D082D083D0F0D0E032FB
:100CF10053B3DF53B4DF53B37F53B47F53B1F753CF
:100D0100B2F753B3F753B4F753B1DF53B2DF7F8078
:100D11007E257D007C0012123AD299D2AFD2ACC2AC
:100D210093E5264525701D7BFF7A1279DD1211FFAF
:100D31007BFF7A1279E31211FF7F647E007D007CD4
:100D410000121169E526640145257023750BFF75B5
:100D51000C12750DE5FB7A007941120D7A8B278A09
:100D61002889291211FFE4F525F526F53CF53D12F8
:090D710008BCAF3E12127380A809
:10123A0053B1BF53B2BF53B17F53B27F7598504376
:10124A008920438780438E1053C4DFAB07AA06A9BF
:10125A0005A8047F407E427D0F7C001204DDEF0466
:09126A00F404F58DD28ED2992214
:100DFA008F648E638D628C6153B1BF53B2BF53B19E
:100E0A007F53B27F75985043878053C4F843C420F8
:100E1A00AB64AA63A962A8617F407E427D0F7C0011
:100E2A001204DDC374FF9FFF74FF9EFEE49DFDE480
:100E3A009CFC780812058E8FC6AB64AA63A962A8C7
:100E4A00617F407E427D0F7C001204DDC374FF9FE8
:090E5A00FF8FC543C408D29922A0
:0712FC003098FDAF99C29884
:0113030022C7
:08130400C2998F993099FD2276
:100E63008F688E678D668C6553B1FB53B2FB53B3AA
:100E7300BF53B4BF75F85075C40853C4DFAB68AA39
:100E830067A966A8657F407E427D0F7C001204DD62
:100E9300C374FF9FFF74FF9EFEE49DFDE49CFC78FA
:100EA3000812058E8FC6AB68AA67A966A8657F403E
:100EB3007E427D0F7C001204DDC374FF9FFF8FC54C
:040EC30043C40822FA
:07130C0030F8FDAF9AC2F8B2
:0113130022B7
:08131400C2F98F9A30F9FD22A5
:10111E008F6C8E6B8D6A8C69538EF7438901D28CDE
:10112E00E4FFFEFDFCAB6CAA6BA96AA869C31205AD
:10113E007D6025758A7E758CFF308DFDC28DE56CC8
:10114E0024FFF56CE56B34FFF56BE56A34FFF56A49
:0B115E00E56934FFF56980C8C28C22EF
:101169008F0B8E0A8D098C08538EF7438901D28C17
:10117900E4FFFEFDFCAB0BAA0AA909A808C31205E6
:101189007D6025758ACA758CFA308DFDC28DE50B97
:1011990024FFF50BE50A34FFF50AE50934FFF509E3
:0B11A900E50834FFF50880C8C28C2266
:1011B4008F708E6F8D6E8C6D538EEF438910D28E2F
:1011C400E4FFFEFDFCAB70AA6FA96EA86DC3120507
:1011D4007D6025758BEA758DCB308FFDC28FE570F0
:1011E40024FFF570E56F34FFF56FE56E34FFF56E9F
:0B11F400E56D34FFF56D80C8C28E224F
:1010D0008F748E738D728C7153C9BF53C9DF43C92E
:1010E00010D2CAE4FFFEFDFCAB74AA73A972A8710A
:1010F000C312057D602575CC3075CDF830CFFDC2AB
:10110000CFE57424FFF574E57334FFF573E57234AD
:0E111000FFF572E57134FFF57180C8C2CA2286
:101030008F788E778D768C7575C40743C408E4FF6E
:10104000FEFDFCAB78AA77A976A875C312057D6072
:101050002B75C52C75C6CFE5C45410641070F853B9
:10106000C4EFE57824FFF578E57734FFF577E5768A
:1010700034FFF576E57534FFF57580C253C4F72269
:101080008F7C8E7B8D7A8C7975C40743C408E4FF0E
:10109000FEFDFCAB7CAA7BA97AA879C312057D6012
:1010A0002B75C5D875C6FFE5C45410641070F8538D
:1010B000C4EFE57C24FFF57CE57B34FFF57BE57A26
:1010C00034FFF57AE57934FFF57980C253C4F7220D
:03000000020BAB45
:100BAB0075C7AA75C75575FD5A75C7AA75C755750B
:100BBB00FDA5787FE4F6D8FD9000007FFF7E03E46F
:0C0BCB00F0A3DFFCDEFA75817F020C1243
:100026000202CEE86480F8E933E83360110460F038
:10003600ED33EC337009E8FCE9FDEAFEEBFF220440
:1000460060DED3EB9FEA9EE99DE8C2E78CF0C2F73B
:1000560095F0400CE8CCF8E9CDF9EACEFAEBCFFB07
:1000660012029985D0F05804700320D5B3E80470C5
:10007600075002B2D50202D892D5EC0460F7E4CC60
:10008600C0E0C398F8603B94186008400DD0E0FBD0
:100096000202B0E4FBFAC9FC8028E830E406E4C9B1
:1000A600FBE4CAFCE830E305E4C9CACBFCE8540724
:1000B6006010F8C3E913F9EA13FAEB13FBEC13FC2F
:1000C600D8F130F52FC3E49CFCEF9BFFEE9AFEEDD2
:1000D60099FDD0E0FBEF4E4D4C701222DB0302027D
:1000E600D5EC2CFCEF33FFEE33FEED33FDED30E7C0
:1000F600EB0202B0EF2BFFEE3AFEED39FDD0E0FB4E
:1001060050130BBB00030202D8ED13FDEE13FEEFF6
:0801160013FFEC13FC0202B020
:10011E00EC4D6011E8497017ED33EC3304600DE4DB
:10012E00FCFFFEFD22E933E8330470F80202CE1222
:10013E00029958046009E4CC248150062850090223
:10014E0002D82840030202D5C0E0EB4A7044B980C1
:10015E0006D0E0FB0202C4EF4E701CBD8008EBFF20
:10016E00EAFEE9FD80EBE98DF0A4FEE5F002020760
:10017E00E9CDF9EAFEEBFFEF89F0A4FCE5F0CE89BC
:10018E00F0A42EFFE435F0CD89F0A42DFEE435F079
:10019E008067EF4E7005BD80D780C3EF8BF0A4ACA7
:1001AE00F0EE8BF0A42CFCE435F0F8EF8AF0A42CE2
:1001BE00E5F038FCE433CB8DF0A42CFCE5F03BF8F5
:1001CE00EE8AF0A42CFCE5F038F8E433CF89F0A4E5
:1001DE002CFCE5F038CF3400CE89F0A42FFFE5F0EB
:1001EE003EFEE433C98DF0A42EFEE5F039CD8AF043
:1001FE00A42FFFE5F03EFEE43DFD33D0E0FB5007BB
:10020E000BBB000F0202D8EC2CFCEF33FFEE33FEDB
:06021E00ED33FD0202B009
:1002240075F020800E75F010800575F0087D007E55
:10023400007F003392D530D50312056FEC334010A4
:10024400EF33FFEE33FEED33FDEC33FCD5F0ED225E
:0E025400E5F0247EA2D513CC92E7CDCEFF229A
:10026200EDD2E7CD33EC3392D524814006E4FFFE94
:10027200FDFC22FCE4CFCECDCC24E0501174FF80F3
:10028200EDC3CC13CCCD13CDCE13CECF13CF047090
:07029200F030D5DE02056F1C
:1009DC008F148E138D128C11E4FFFE7D807C3FAB47
:1009EC0014AA13A912A8111202FD7009AF14AE13A8
:1009FC00AD12AC1122AF14AE13AD12AC111202E356
:100A0C00FBAF18AE17AD16AC151202E3FFBF010811
:100A1C00E4FFFE7D807C3F22EF64046022EB6404E3
:100A2C00601DBB0127E4FFFEFDFCAB18AA17A9163D
:100A3C00A8151202FD60084006E4FFFEFDFC2274BE
:100A4C00FFF518F517F516F515020AEAE4F519F590
:100A5C001AFFFEFDFCAB14AA13A912A8111202FD79
:100A6C00504BAF18AE17AD16AC151202628E198F23
:100A7C001AAC19AD1AEC120229C8ECC8C9EDC9CAD6
:100A8C00EECACBEFCBAF18AE17AD16AC15120029D2
:100A9C00E4FBFAF9F81202FD70A5AF14AE13AD1217
:100AAC00AC111203768F148E138D128C11AF14AE01
:100ABC0013AD12AC111207BBAB18AA17A916A815C7
:100ACC0012011E120C8F8F188E178D168C15E51AAD
:100ADC0030E00B1203768F188E178D168C15AF180D
:070AEC00AE17AD16AC152298
:10029900E9D2E7C933E833F892D5EDD2E7CD33ECAB
:0702A90033FC5002B2D52224
:1002B000EC30E7100FBF000C0EBE00080DBD0004AF
:1002C0000BEB6014A2D5EB13FCED92E7FD2274FF5B
:1002D000FCFDFEFF22E480F8A2D574FF13FC7D80B4
:0302E000E480EFC8
:1002E300ED33EC33601004700FED547F700574022E
:0A02F30092E0227404220422E422A7
:1002FD0074F8CC6480CCC86480C8F58204604FC3A8
:10030D00EB9FF5F0EA9E42F0E99D42F0E89C45F046
:10031D00603C501DE5825FFFE582D313CB5BCBF4D0
:10032D002B5582FB50280ABA002409B900200880F9
:10033D001DE5825BFBE582D313CF5FCFF4C3132F93
:10034D005582FF50090EBE00050DBD00010CC3EB1B
:10035D009FF5F0EA9E42F0E99D42F0E89C45F06081
:09036D0007CC4820E701B3EC22A3
:10037600ED33EC33600A047003BD8004ECB2E7FC95
:010386002254
:100C570033DA929E35B16011377FE5FE39218489F9
:100C67003AAEC3FF3C1D955B3D6358473E75FDF0AB
:100C77003F3172183F800000C2D50202D80202CE6F
:100C8700BD80FA50F30202D5ED33EC330460F17BFB
:100C97003B7AAA79B8783F12011EED33EC3392D52F
:100CA700247B5011A2D570DB500BED4480240450F7
:100CB70004A2D580CEEFFBEEFAEDF9ECF812026252
:100CC700EFF582F404FC12022E12002DC082900C64
:100CD700577409120436ED33CC33D0F092D525F092
:0A0CE700A2D57001C313CC13FD2247
:100787003E9248DA3ECCCCCD3F2AAAAB40000000CF
:100797003F8000003F9837F03FB504F33FD744FC54
:1007A7003E3172173EB172173F0515913EDE5BD998
:1007B700D2018002C201EDD2E7F8CD33EC330470E9
:1007C7000BBD800592D50202D80202CE40FBD3149E
:1007D70060F2F5F07C3FEE7A00C39496C8948B40A4
:1007E700230AC89469C8941A401A0AC89468C89416
:1007F7001F40110AC8945AC89425400805F07A008A
:10080700CDC2E7CDC0F08C1B8D1C8E1D8F1EEA2339
:1008170023C0E02497F582E43407F5831205B1126B
:10082700002DECC0E0EDC0E0EEC0E0EFC0E0120547
:10083700A1A81BA91CAA1DAB1E120029D0E0FBD042
:10084700E0FAD0E0F9D0E0B2E7F812038A8C1B8D0A
:100857001C8E1D8F1E9007877403120427A81BA9DF
:100867001CAA1DAB1E12011ED0E0600F24A3F58247
:10087700E43407F5831205B112002D8C1B8D1C8EF5
:100887001D8F1ED0E0C3947FFDE49400FC12022963
:100897007B187A727931783F12011EA81BA91CAA0E
:1008A7001DAB1E12002D30010B7BD97A5B79DE78E8
:0508B7003E12011E22AB
:100387000202D8EC5D046005E8590470030202CE4E
:10039700120299580460F6EC4860F2EC7004FDFE16
:1003A700FF22C860DB2481C85009C3986002500649
:1003B7000202D59850CAF582E9294B4A7005AB82EB
:1003C7000202C475F0007C1A7880C3EF9BEE9AEDA9
:1003D70099400DC3EF9BFFEE9AFEED99FDE842F0C1
:1003E700DC23ACF0D0E0FFD0E0FED0E0FDAB822014
:1003F700E7101BEB60BAEC2CFCEF33FFEE33FEED9E
:1004070033FD0202B0E803F830E705C0F075F000ED
:10041700EF2FFFEE33FEED33FD40B830E7C280AA81
:10042700C0E0EFFBEEFAEDF9ECF812011ED0E0F5B3
:10043700F0EFFBEEFAEDF9ECF81205A1A3A3A3A3E5
:10044700E8C0E0E9C0E0EAC0E0EBC0E0C0F01201BC
:100457001E1205B1A3A3A3A312002DD0F0D0E0FB79
:0D046700D0E0FAD0E0F9D0E0F8D5F0D422D2
:100BD700020CF1E493A3F8E493A34003F68001F237
:100BE70008DFF48029E493A3F85407240CC8C3331F
:100BF700C4540F4420C8834004F456800146F6DFEE
:100C0700E4800B01020408102040809012A9E47EC2
:100C1700019360BCA3FF543F30E509541FFEE493E2
:100C2700A360010ECF54C025E060A840B8E493A3A9
:100C3700FAE493A3F8E493A3C8C582C8CAC583CAD4
:100C4700F0A3C8C582C8CAC583CADFE9DEE780BE8C
:0112CB000022
:10047400BB010CE58229F582E5833AF583E022503D
:1004840006E92582F8E622BBFE06E92582F8E22287
:0D049400E58229F582E5833AF583E49322A1
:1004A10075F008758200EF2FFFEE33FECD33CDCC12
:1004B10033CCC58233C5829BED9AEC99E582984095
:1004C1000CF582EE9BFEED9AFDEC99FC0FD5F0D672
:1004D100E4CEFBE4CDFAE4CCF9A88222B800C1B99C
:1004E1000059BA002DEC8BF084CFCECDFCE5F0CBDA
:1004F100F97818EF2FFFEE33FEED33FDEC33FCEB13
:1005010033FB10D703994004EB99FB0FD8E5E4F9CD
:10051100FA227818EF2FFFEE33FEED33FDEC33FCBA
:10052100C933C910D7059BE99A4007EC9BFCE99AAE
:10053100F90FD8E0E4C9FAE4CCFB2275F010EF2FF3
:10054100FFEE33FEED33FDCC33CCC833C810D707F3
:100551009BEC9AE899400AED9BFDEC9AFCE899F82E
:0E0561000FD5F0DAE4CDFBE4CCFAE4C8F922C1
:0E056F00C3E49FFFE49EFEE49DFDE49CFC229D
:10057D00EB9FF5F0EA9E42F0E99D42F0E89C45F0D4
:01058D00224B
:10058E00E8600FECC313FCED13FDEE13FEEF13FF4B
:03059E00D8F1226F
:1005A100E493FC740193FD740293FE740393FF22A0
:1005B100E493F8740193F9740293FA740393FB22A0
:1005C100E3F5F009E208B5F06D606B80F3E3F5F057
:1005D10009E608B5F060605E80F387F009E608B5CA
:1005E100F054605280F487F009E208B5F0486046A3
:1005F10080F488828C8387F009E0A3B5F0386036F7
:1006010080F488828C8387F009E493A3B5F0276096
:100611002580F388828C83E3F5F009E0A3B5F01619
:10062100601480F388828C83E3F5F009E493A3B529
:10063100F004600280F20206EC808580E7808E8003
:10064100D2803C8015806C807E809B80B5808B80C1
:10065100A1804F8070803A0206F889828A83ECFA81
:10066100E493F5F0A3C8C582C8CCC583CCE493A3B9
:10067100C8C582C8CCC583CCB5F070606E80E189F5
:10068100828A83E493F5F0A3E208B5F05E605C80B2
:10069100F289828A83E0F5F0A3E608B5F04D604B5C
:1006A10080F389828A83E0F5F0A3E208B5F03C602B
:1006B1003A80F389828A83E493F5F0A3E608B5F0E2
:1006C1002A602880F2805389828A83ECFAE493F5C8
:1006D100F0A3C8C582C8CCC583CCE0A3C8C582C875
:1006E100CCC583CCB5F004600280E27FFFB5F00297
:1006F1000F2240027F012289828A83ECFAE0F5F021
:10070100A3C8C582C8CCC583CCE0A3C8C582C8CC68
:10071100C583CCB5F0D560D380E389828A83ECFAB6
:10072100E0F5F0A3C8C582C8CCC583CCE493A3C8C7
:10073100C582C8CCC583CCB5F0B160AF80E288F08A
:10074100ED2402B4040050A3F582EB2402B40400AA
:0B0751005099232345822390063A7341
:1012E700E4FFFE12075C600C0FEF70010E09E97056
:0512F700F20A80EF2265
:100D7A008B088A09890AE94A4B7009857D08857EAC
:100D8A0009857F0AE50A450945087002802C850B0A
:100D9A0011850C12850D13AB08AA09A90A120EC7F0
:100DAA00EF250AF50AEE3509F509AB08FAA90A1280
:100DBA00075C700AF57DF57EF57FFBFAF922850B53
:100DCA0011850C12850D13AB08AA09A90A120F285E
:100DDA008B7D8A7E897FEA494B600EE4120775048F
:100DEA00257FF57FE4357EF57EAB08AA09A90A229C
:10075C00BB010689828A83E0225002E722BBFE029B
:09076C00E32289828A83E49322CE
:10077500BB010689828A83F0225002F722BBFE0163
:02078500F3225D
:100EC7008B0E8A0F8910E4F514F515E4FEFFAB11BC
:100ED700AA12A9138F828E83120474FD6013AB0EBE
:100EE700AA0FA91012075C6D60070FBF00010E80E3
:100EF700DDAB11AA12A9138F828E831204747002BC
:100F0700801A0515E51570020514AB0E0510E510DE
:100F17007002050FF9AA0F12075C70AFAE14AF1578
:010F270022A7
:100F28008B0E8A0F8910851114851215851316AB3F
:100F380014AA15A91612075CFF6019AB0EAA0FA90F
:100F48001012075C6F600D74012516F516E435154F
:100F5800F51580DBAB14AA15A91612075C6007AB60
:100F68000EAA0FA91022AB0E0510E510AA0F7002E9
:0D0F7800050F14F912075C70ADFBFAF922A9
:00000001FF
