:0C052C000A08EB88B3BAD87A7BA8FBFA67
:0204CB00AD077B
:1004CD00E4FBEBC394087480948050237E00748009
:1004DD00A803088006CEA2E713CE13D8F8FFEDF5DA
:1004ED0082EF558224FF9283C295D2950B80D3C2A1
:0304FD0097D297FC
:0105000022D8
:1005010053B3DF53B4DF53B37F53B47F53B1F753C6
:10051100B2F753B3FE53B4FE53B3FD53B4FD53B31B
:0B052100FB53B4FB53B3F753B4F722B5
:10026E00120501C293AF081204CB7F057E007D00FC
:10027E007C001203FCD293C292AF091204CB7F050D
:10028E007E007D007C001203FCD292C291AF0A1256
:10029E0004CB7F057E007D007C001203FCD291C250
:1002AE0090AF0C1204CB7F057E007D007C00120304
:0502BE00FCD29080AEAF
:1004920053B1BF53B2BF53B17F53B27F759850432C
:1004A2008920438780438E1053C4DFAB07AA06A975
:1004B20005A8047F407E427D0F7C0012003FEF04BE
:0904C200F404F58DD28ED29922CA
:1001A1008F158E148D138C1253B1BF53B2BF53B13F
:1001B1007F53B27F75985043878053C4F843C4205E
:1001C100AB15AA14A913A8127F407E427D0F7C00B3
:1001D10012003FC374FF9FFF74FF9EFEE49DFDE488
:1001E1009CFC78081200E28FC6AB15AA14A913A8CB
:1001F100127F407E427D0F7C0012003FC374FF9F3F
:09020100FF8FC543C408D2992205
:070539003098FDAF99C29854
:010540002298
:08054100C2998F993099FD2247
:10020A008F198E188D178C1653B1FB53B2FB53B34B
:10021A00BF53B4BF75F85075C40853C4DFAB19AAED
:10022A0018A917A8167F407E427D0F7C0012003F56
:10023A00C374FF9FFF74FF9EFEE49DFDE49CFC785F
:10024A00081200E28FC6AB19AA18A917A8167F4090
:10025A007E427D0F7C0012003FC374FF9FFF8FC553
:04026A0043C408225F
:0705490030F8FDAF9AC2F883
:010550002288
:08055100C2F98F9A30F9FD2276
:1003B1008F1D8E1C8D1B8C1A538EF7438901D28C95
:1003C100E4FFFEFDFCAB1DAA1CA91BA81AC3120069
:1003D100D16025758A7E758CFF308DFDC28DE51D3E
:1003E10024FFF51DE51C34FFF51CE51B34FFF51B4F
:0B03F100E51A34FFF51A80C8C28C2208
:1003FC008F348E338D328C31538EF7438901D28CEE
:10040C00E4FFFEFDFCAB34AA33A932A831C31200C1
:10041C00D16025758ACA758CFA308DFDC28DE53494
:10042C0024FFF534E53334FFF533E53234FFF53290
:0B043C00E53134FFF53180C8C28C228E
:100447008F248E238D228C21538EEF438910D28ED9
:10045700E4FFFEFDFCAB24AA23A922A821C31200B6
:10046700D16025758BEA758DCB308FFDC28FE52462
:1004770024FFF524E52334FFF523E52234FFF52295
:0B048700E52134FFF52180C8C28E2261
:100363008F288E278D268C2553C9BF53C9DF43C9D8
:1003730010D2CAE4FFFEFDFCAB28AA27A926A825B4
:10038300C31200D1602575CC3075CDF830CFFDC2D6
:10039300CFE52824FFF528E52734FFF527E52634A4
:0E03A300FFF526E52534FFF52580C8C2CA22E5
:1002C3008F2C8E2B8D2A8C2975C40743C408E4FF19
:1002D300FEFDFCAB2CAA2BA92AA829C31200D160CE
:1002E3002B75C52C75C6CFE5C45410641070F85334
:1002F300C4EFE52C24FFF52CE52B34FFF52BE52A81
:1003030034FFF52AE52934FFF52980C253C4F722C7
:100313008F308E2F8D2E8C2D75C40743C408E4FFB8
:10032300FEFDFCAB30AA2FA92EA82DC31200D1606D
:100333002B75C5D875C6FFE5C45410641070F85307
:10034300C4EFE53024FFF530E52F34FFF52FE52E1C
:1003530034FFF52EE52D34FFF52D80C253C4F7226B
:030000000200F506
:1000F50075C7AA75C75575FD5A75C7AA75C75575CC
:10010500FDA5787FE4F6D8FD9000007FFF7E03E42F
:0C011500F0A3DFFCDEFA75813402015C0F
:1001210002026EE493A3F8E493A34003F68001F284
:1001310008DFF48029E493A3F85407240CC8C333DF
:10014100C4540F4420C8834004F456800146F6DFAE
:10015100E4800B010204081020408090052CE47E0D
:10016100019360BCA3FF543F30E509541FFEE493A3
:10017100A360010ECF54C025E060A840B8E493A36A
:10018100FAE493A3F8E493A3C8C582C8CAC583CA95
:10019100F0A3C8C582C8CAC583CADFE9DEE780BE4D
:0105380000C2
:1000030075F008758200EF2FFFEE33FECD33CDCCB4
:1000130033CCC58233C5829BED9AEC99E582984037
:100023000CF582EE9BFEED9AFDEC99FC0FD5F0D614
:10003300E4CEFBE4CDFAE4CCF9A88222B800C1B93E
:100043000059BA002DEC8BF084CFCECDFCE5F0CB7C
:10005300F97818EF2FFFEE33FEED33FDEC33FCEBB5
:1000630033FB10D703994004EB99FB0FD8E5E4F970
:10007300FA227818EF2FFFEE33FEED33FDEC33FC5D
:10008300C933C910D7059BE99A4007EC9BFCE99A51
:10009300F90FD8E0E4C9FAE4CCFB2275F010EF2F96
:1000A300FFEE33FEED33FDCC33CCC833C810D70796
:1000B3009BEC9AE899400AED9BFDEC9AFCE899F8D1
:0E00C3000FD5F0DAE4CDFBE4CCFAE4C8F92264
:1000D100EB9FF5F0EA9E42F0E99D42F0E89C45F085
:0100E10022FC
:1000E200E8600FECC313FCED13FDEE13FEEF13FFFC
:0300F200D8F12220
:00000001FF
