:0205D1000A001E
:0604FC008B0F8A1089112C
:10050200E4F512F513AB0FAA10A91112059CC3E56D
:10051200139FE5129E501DAB0FAA10A911851382DD
:10052200851283120003FF1205B90513E51370D576
:04053200051280D15D
:0105360022A2
:1001900053E8F043E80543B11053B2EFE4F5F643FA
:1001A000F62043E101F5B1F5B2F5B3F5B4F5ACF5E0
:1001B000AD7F807E25FDFC12053753B1DF53B2DFE2
:1001C000D299C2EFD2EE30EFFDAFC37508008F09B0
:1001D000E509C4F8540FC868F509E508C454F048A7
:1001E000F508AFC2EF4209AE08AF097C037DE81203
:1001F0000030EF2430FF1205B9AE08AF097C037D53
:10020000E81200307E007F64CFCDCFCECCCE12007E
:1002100030EF2430FF1205B9AE08AF097C007D64D1
:100220001200307E007F0ACFCDCFCECCCE12003070
:10023000EF2430FF1205B9AE08AF097C007D0A1229
:100240000030ED2430FF1205B97BFF7A0579D11219
:1002500004FC7FF47E017D007C001204660201C272
:1005370053B1BF53B2BF53B17F53B27F7598504386
:100547008920438780438E1053C4DFAB07AA06A9CF
:1005570005A8047F407E427D0F7C001200C1EF0496
:09056700F404F58DD28ED2992224
:100260008F178E168D158C1453B1BF53B2BF53B177
:100270007F53B27F75985043878053C4F843C4209E
:10028000AB17AA16A915A8147F407E427D0F7C00EB
:100290001200C1C374FF9FFF74FF9EFEE49DFDE446
:1002A0009CFC78081201648FC6AB17AA16A915A882
:1002B000147F407E427D0F7C001200C1C374FF9FFB
:0902C000FF8FC543C408D2992246
:0705B1003098FDAF99C298DC
:0105B8002220
:0805B900C2998F993099FD22CF
:1002C9008F1B8E1A8D198C1853B1FB53B2FB53B384
:1002D900BF53B4BF75F85075C40853C4DFAB1BAA2C
:1002E9001AA919A8187F407E427D0F7C001200C10F
:1002F900C374FF9FFF74FF9EFEE49DFDE49CFC78A0
:10030900081201648FC6AB1BAA1AA919A8187F4045
:100319007E427D0F7C001200C1C374FF9FFF8FC511
:0403290043C408229F
:0705C10030F8FDAF9AC2F80B
:0105C8002210
:0805C900C2F98F9A30F9FD22FE
:10041B008F1F8E1E8D1D8C1C538EF7438901D28C22
:10042B00E4FFFEFDFCAB1FAA1EA91DA81CC31201F5
:10043B00536025758A7E758CFF308DFDC28DE51F4F
:10044B0024FFF51FE51E34FFF51EE51D34FFF51DDA
:0B045B00E51C34FFF51C80C8C28C2299
:100466008F128E118D108C0F538EF7438901D28C0B
:10047600E4FFFEFDFCAB12AA11A910A80FC31201DE
:10048600536025758ACA758CFA308DFDC28DE512CA
:1004960024FFF512E51134FFF511E51034FFF510D0
:0B04A600E50F34FFF50F80C8C28C2268
:1004B1008F248E238D228C21538EEF438910D28E6F
:1004C100E4FFFEFDFCAB24AA23A922A821C312014B
:1004D100536025758BEA758DCB308FFDC28FE52476
:1004E10024FFF524E52334FFF523E52234FFF5222B
:0B04F100E52134FFF52180C8C28E22F7
:1003CD008F288E278D268C2553C9BF53C9DF43C96E
:1003DD0010D2CAE4FFFEFDFCAB28AA27A926A8254A
:1003ED00C3120153602575CC3075CDF830CFFDC2E9
:1003FD00CFE52824FFF528E52734FFF527E526343A
:0E040D00FFF526E52534FFF52580C8C2CA227A
:10032D008F2C8E2B8D2A8C2975C40743C408E4FFAE
:10033D00FEFDFCAB2CAA2BA92AA829C312015360E0
:10034D002B75C52C75C6CFE5C45410641070F853C9
:10035D00C4EFE52C24FFF52CE52B34FFF52BE52A16
:10036D0034FFF52AE52934FFF52980C253C4F7225D
:10037D008F308E2F8D2E8C2D75C40743C408E4FF4E
:10038D00FEFDFCAB30AA2FA92EA82DC31201536080
:10039D002B75C5D875C6FFE5C45410641070F8539D
:1003AD00C4EFE53024FFF530E52F34FFF52FE52EB2
:1003BD0034FFF52EE52D34FFF52D80C253C4F72201
:0300000002057086
:1005700075C7AA75C75575FD5A75C7AA75C755754C
:10058000FDA5787FE4F6D8FD9000007FFF7E03E4B0
:0C059000F0A3DFFCDEFA75813002019060
:10000300BB010CE58229F582E5833AF583E02250B2
:1000130006E92582F8E622BBFE06E92582F8E222FC
:0D002300E58229F582E5833AF583E4932216
:10003000BC000BBE0029EF8DF084FFADF022E4CCB4
:10004000F875F008EF2FFFEE33FEEC33FCEE9DEC7D
:10005000984005FCEE9DFE0FD5F0E9E4CEFD22EDC3
:10006000F8F5F0EE8420D21CFEADF075F008EF2F0D
:10007000FFED33FD4007985006D5F0F222C398FDFE
:050080000FD5F0EA229B
:1000850075F008758200EF2FFFEE33FECD33CDCC32
:1000950033CCC58233C5829BED9AEC99E5829840B5
:1000A5000CF582EE9BFEED9AFDEC99FC0FD5F0D692
:1000B500E4CEFBE4CDFAE4CCF9A88222B800C1B9BC
:1000C5000059BA002DEC8BF084CFCECDFCE5F0CBFA
:1000D500F97818EF2FFFEE33FEED33FDEC33FCEB33
:1000E50033FB10D703994004EB99FB0FD8E5E4F9EE
:1000F500FA227818EF2FFFEE33FEED33FDEC33FCDB
:10010500C933C910D7059BE99A4007EC9BFCE99ACE
:10011500F90FD8E0E4C9FAE4CCFB2275F010EF2F13
:10012500FFEE33FEED33FDCC33CCC833C810D70713
:100135009BEC9AE899400AED9BFDEC9AFCE899F84E
:0E0145000FD5F0DAE4CDFBE4CCFAE4C8F922E1
:10015300EB9FF5F0EA9E42F0E99D42F0E89C45F002
:010163002279
:10016400E8600FECC313FCED13FDEE13FEEF13FF79
:03017400D8F1229D
:10059C00E4FFFE120177600C0FEF70010E09E97099
:0505AC00F20A80EF22BD
:10017700BB010689828A83E0225002E722BBFE0286
:09018700E32289828A83E49322B9
:00000001FF
