:0B0504000909313233343536373839FD
:060375008B318A3289334E
:10037B00E4FFD3ED9400EC648094804037AB3105FF
:10038B0033E533AA327002053214F9120003620707
:10039B00E4FBFAEF30E70725E06407FF8004EF2565
:1003AB00E0FF0BBB00010AEB64084A70E6ED1D7021
:0403BB00C11C80BE23
:0103BF00221B
:1004DA007F807E257D007C001204A17B007A007952
:1004EA00097D097C001203758F081205187FE87EC2
:0A04FA00037D007C0012040B80E17A
:1004A10053B1BF53B2BF53B17F53B27F759850431D
:1004B1008920438780438E1053C4DFAB07AA06A966
:1004C10005A8047F407E427D0F7C00120058EF0496
:0904D100F404F58DD28ED29922BB
:1001BA008F158E148D138C1253B1BF53B2BF53B126
:1001CA007F53B27F75985043878053C4F843C42045
:1001DA00AB15AA14A913A8127F407E427D0F7C009A
:1001EA00120058C374FF9FFF74FF9EFEE49DFDE456
:1001FA009CFC78081200FB8FC6AB15AA14A913A899
:10020A00127F407E427D0F7C00120058C374FF9F0C
:09021A00FF8FC543C408D29922EC
:070510003098FDAF99C2987D
:0105170022C1
:08051800C2998F993099FD2270
:100223008F198E188D178C1653B1FB53B2FB53B332
:10023300BF53B4BF75F85075C40853C4DFAB19AAD4
:1002430018A917A8167F407E427D0F7C0012005824
:10025300C374FF9FFF74FF9EFEE49DFDE49CFC7846
:10026300081200FB8FC6AB19AA18A917A8167F405E
:100273007E427D0F7C00120058C374FF9FFF8FC521
:0402830043C4082246
:0705200030F8FDAF9AC2F8AC
:0105270022B1
:08052800C2F98F9A30F9FD229F
:1003C0008F1D8E1C8D1B8C1A538EF7438901D28C86
:1003D000E4FFFEFDFCAB1DAA1CA91BA81AC312005A
:1003E000EA6025758A7E758CFF308DFDC28DE51D16
:1003F00024FFF51DE51C34FFF51CE51B34FFF51B40
:0B040000E51A34FFF51A80C8C28C22F8
:10040B008F348E338D328C31538EF7438901D28CDE
:10041B00E4FFFEFDFCAB34AA33A932A831C31200B2
:10042B00EA6025758ACA758CFA308DFDC28DE5346C
:10043B0024FFF534E53334FFF533E53234FFF53281
:0B044B00E53134FFF53180C8C28C227F
:100456008F248E238D228C21538EEF438910D28ECA
:10046600E4FFFEFDFCAB24AA23A922A821C31200A7
:10047600EA6025758BEA758DCB308FFDC28FE5243A
:1004860024FFF524E52334FFF523E52234FFF52286
:0B049600E52134FFF52180C8C28E2252
:100327008F288E278D268C2553C9BF53C9DF43C914
:1003370010D2CAE4FFFEFDFCAB28AA27A926A825F0
:10034700C31200EA602575CC3075CDF830CFFDC2F9
:10035700CFE52824FFF528E52734FFF527E52634E0
:0E036700FFF526E52534FFF52580C8C2CA2221
:100287008F2C8E2B8D2A8C2975C40743C408E4FF55
:10029700FEFDFCAB2CAA2BA92AA829C31200EA60F1
:1002A7002B75C52C75C6CFE5C45410641070F85370
:1002B700C4EFE52C24FFF52CE52B34FFF52BE52ABD
:1002C70034FFF52AE52934FFF52980C253C4F72204
:1002D7008F308E2F8D2E8C2D75C40743C408E4FFF5
:1002E700FEFDFCAB30AA2FA92EA82DC31200EA6091
:1002F7002B75C5D875C6FFE5C45410641070F85344
:10030700C4EFE53024FFF530E52F34FFF52FE52E58
:1003170034FFF52EE52D34FFF52D80C253C4F722A7
:0300000002010EEC
:10010E0075C7AA75C75575FD5A75C7AA75C75575B2
:10011E00FDA5787FE4F6D8FD9000007FFF7E03E416
:0C012E00F0A3DFFCDEFA758134020175DD
:10013A000204DAE493A3F8E493A34003F68001F2FD
:10014A0008DFF48029E493A3F85407240CC8C333C6
:10015A00C4540F4420C8834004F456800146F6DF95
:10016A00E4800B0102040810204080900504E47E1C
:10017A00019360BCA3FF543F30E509541FFEE4938A
:10018A00A360010ECF54C025E060A840B8E493A351
:10019A00FAE493A3F8E493A3C8C582C8CAC583CA7C
:1001AA00F0A3C8C582C8CAC583CADFE9DEE780BE34
:01050F0000EB
:10000300BB010689828A83E0225002E722BBFE02FB
:09001300E32289828A83E493222E
:10001C0075F008758200EF2FFFEE33FECD33CDCC9B
:10002C0033CCC58233C5829BED9AEC99E58298401E
:10003C000CF582EE9BFEED9AFDEC99FC0FD5F0D6FB
:10004C00E4CEFBE4CDFAE4CCF9A88222B800C1B925
:10005C000059BA002DEC8BF084CFCECDFCE5F0CB63
:10006C00F97818EF2FFFEE33FEED33FDEC33FCEB9C
:10007C0033FB10D703994004EB99FB0FD8E5E4F957
:10008C00FA227818EF2FFFEE33FEED33FDEC33FC44
:10009C00C933C910D7059BE99A4007EC9BFCE99A38
:1000AC00F90FD8E0E4C9FAE4CCFB2275F010EF2F7D
:1000BC00FFEE33FEED33FDCC33CCC833C810D7077D
:1000CC009BEC9AE899400AED9BFDEC9AFCE899F8B8
:0E00DC000FD5F0DAE4CDFBE4CCFAE4C8F9224B
:1000EA00EB9FF5F0EA9E42F0E99D42F0E89C45F06C
:0100FA0022E3
:1000FB00E8600FECC313FCED13FDEE13FEEF13FFE3
:03010B00D8F12206
:00000001FF
