:040574008F828E8361
:03057800E493FF0A
:01057B00225D
:040003008E098F0AC9
:10000700E4FCE50A7807CEC313CE13D8F97807C303
:1000170033CE33CED8F9FBAA06E4FCECC394807444
:10002700809480501DEC2BFFE43AFE120574750B8B
:10003700008F0C74002CF582E43400F583EFF00C8C
:1000470080D97E00E50A547F2400F582EE3400F55E
:1000570083EDF0EBF5A6EAF5A775AEFFA2AF920028
:10006700C2AF75C7AA75C755439F01A20092AFA239
:10007700AF9200C2AF75C7AA75C75543A501A200C5
:1000870092AF75AF22A2AF9200C2AF75C7AA75C76C
:100097005543A401A20092AFA2AF9200C2AF75C7A9
:1000A700AA75C755439F01A20092AFA2AF9200C2A3
:1000B700AF75C7AA75C75543A501A20092AF75AF23
:1000C70021E4FCECC3948074809480502AEB2CF5D7
:1000D700A6EAF5A774002CF582E43400F583E0F571
:1000E700AEA2AF9200C2AF75C7AA75C75543A401A8
:1000F700A20092AF0C80CCA2AF9200C2AF75C7AA84
:1001070075C75553A5FEA20092AFA2AF9200C2AF2A
:0D01170075C7AA75C755539FFEA20092AF91
:0101240022B8
:1002E40053B1DF53B2DF7F807E257D007C00120591
:1002F4000FD299C2857F027E38120574EF640170B3
:100304000A7F05120574EF24FF92857FD07E077D56
:10031400007C001204797DFF7F057E381200037D86
:10032400017F027E381200037F057E381205748F28
:0C03340008E50824FF928512058480EC87
:10050F0053B1BF53B2BF53B17F53B27F75985043AE
:10051F008920438780438E1053C4DFAB07AA06A9F7
:10052F0005A8047F407E427D0F7C00120161EF041D
:09053F00F404F58DD28ED299224C
:100217008F108E0F8D0E8C0D53B1BF53B2BF53B1DC
:100227007F53B27F75985043878053C4F843C420E7
:10023700AB10AA0FA90EA80D7F407E427D0F7C0050
:10024700120161C374FF9FFF74FF9EFEE49DFDE4EE
:100257009CFC78081202048FC6AB10AA0FA90EA83F
:100267000D7F407E427D0F7C00120161C374FF9FAA
:09027700FF8FC543C408D299228F
:07057C003098FDAF99C29811
:010583002255
:08058400C2998F993099FD2204
:100280008F148E138D128C1153B1FB53B2FB53B3E9
:10029000BF53B4BF75F85075C40853C4DFAB14AA7C
:1002A00013A912A8117F407E427D0F7C00120161CC
:1002B000C374FF9FFF74FF9EFEE49DFDE49CFC78E9
:1002C000081202048FC6AB14AA13A912A8117F400A
:1002D0007E427D0F7C00120161C374FF9FFF8FC5BA
:0402E00043C40822E9
:07058C0030F8FDAF9AC2F840
:010593002245
:08059400C2F98F9A30F9FD2233
:10042E008F188E178D168C15538EF7438901D28C2B
:10043E00E4FFFEFDFCAB18AA17A916A815C31201FE
:10044E00F36025758A7E758CFF308DFDC28DE518A3
:10045E0024FFF518E51734FFF517E51634FFF516EA
:0B046E00E51534FFF51580C8C28C2294
:100479008F0C8E0B8D0A8C09538EF7438901D28C10
:10048900E4FFFEFDFCAB0CAA0BA90AA809C31201E3
:10049900F36025758ACA758CFA308DFDC28DE50C1D
:1004A90024FFF50CE50B34FFF50BE50A34FFF50ADB
:0B04B900E50934FFF50980C8C28C2261
:1004C4008F1C8E1B8D1A8C19538EEF438910D28E7C
:1004D400E4FFFEFDFCAB1CAA1BA91AA819C3120158
:1004E400F36025758BEA758DCB308FFDC28FE51CCB
:1004F40024FFF51CE51B34FFF51BE51A34FFF51A40
:0B050400E51934FFF51980C8C28E22F3
:1003E0008F248E238D228C2153C9BF53C9DF43C96B
:1003F00010D2CAE4FFFEFDFCAB24AA23A922A82147
:10040000C31201F3602575CC3075CDF830CFFDC235
:10041000CFE52424FFF524E52334FFF523E522343A
:0E042000FFF522E52134FFF52180C8C2CA2273
:100340008F288E278D268C2575C40743C408E4FFAB
:10035000FEFDFCAB28AA27A926A825C31201F3603D
:100360002B75C52C75C6CFE5C45410641070F853B6
:10037000C4EFE52824FFF528E52734FFF527E52617
:1003800034FFF526E52534FFF52580C253C4F72256
:100390008F2C8E2B8D2A8C2975C40743C408E4FF4B
:1003A000FEFDFCAB2CAA2BA92AA829C31201F360DD
:1003B0002B75C5D875C6FFE5C45410641070F8538A
:1003C000C4EFE52C24FFF52CE52B34FFF52BE52AB3
:1003D00034FFF52AE52934FFF52980C253C4F722FA
:03000000020548AE
:1005480075C7AA75C75575FD5A75C7AA75C7557574
:10055800FDA5787FE4F6D8FD9000007FFF7E03E4D8
:0C056800F0A3DFFCDEFA75812C0202E437
:1001250075F008758200EF2FFFEE33FECD33CDCC91
:1001350033CCC58233C5829BED9AEC99E582984014
:100145000CF582EE9BFEED9AFDEC99FC0FD5F0D6F1
:10015500E4CEFBE4CDFAE4CCF9A88222B800C1B91B
:100165000059BA002DEC8BF084CFCECDFCE5F0CB59
:10017500F97818EF2FFFEE33FEED33FDEC33FCEB92
:1001850033FB10D703994004EB99FB0FD8E5E4F94D
:10019500FA227818EF2FFFEE33FEED33FDEC33FC3A
:1001A500C933C910D7059BE99A4007EC9BFCE99A2E
:1001B500F90FD8E0E4C9FAE4CCFB2275F010EF2F73
:1001C500FFEE33FEED33FDCC33CCC833C810D70773
:1001D5009BEC9AE899400AED9BFDEC9AFCE899F8AE
:0E01E5000FD5F0DAE4CDFBE4CCFAE4C8F92241
:1001F300EB9FF5F0EA9E42F0E99D42F0E89C45F062
:0102030022D8
:10020400E8600FECC313FCED13FDEE13FEEF13FFD8
:03021400D8F122FC
:00000001FF
