:090003000708446576696F74007A
:0300230002029145
:10029100C0E0C0F0C083C082C0D075D000C000C033
:1002A10001C002C003C004C005C006C007309818D1
:1002B10012000D8F0F120015E50FB43102D285E542
:1002C1000FB43002C285C298309902C299D007D0CA
:1002D10006D005D004D003D002D001D000D0D0D0B8
:0802E10082D083D0F0D0E0329E
:1004B8007F807E257D007C00120501D299D2AFD2C3
:1004C800AC53B1DF53B2DFE4F510F5117408251110
:1004D800F8E6FFFD3395E04D600D1200150511E5B6
:1004E8001170E9051080E57F0A1200157F2C7E0146
:0904F8007D007C0012042280CE7C
:1005010053B1BF53B2BF53B17F53B27F75985043BC
:100511008920438780438E1053C4DFAB07AA06A905
:1005210005A8047F407E427D0F7C00120062EF042B
:09053100F404F58DD28ED299225A
:1001C4008F158E148D138C1253B1BF53B2BF53B11C
:1001D4007F53B27F75985043878053C4F843C4203B
:1001E400AB15AA14A913A8127F407E427D0F7C0090
:1001F400120062C374FF9FFF74FF9EFEE49DFDE442
:100204009CFC78081201058FC6AB15AA14A913A883
:10021400127F407E427D0F7C00120062C374FF9FF8
:09022400FF8FC543C408D29922E2
:07000D003098FDAF99C29885
:0100140022C9
:08001500C2998F993099FD2278
:10022D008F198E188D178C1653B1FB53B2FB53B328
:10023D00BF53B4BF75F85075C40853C4DFAB19AACA
:10024D0018A917A8167F407E427D0F7C0012006210
:10025D00C374FF9FFF74FF9EFEE49DFDE49CFC783C
:10026D00081201058FC6AB19AA18A917A8167F4049
:10027D007E427D0F7C00120062C374FF9FFF8FC50D
:04028D0043C408223C
:07053A0030F8FDAF9AC2F892
:010541002297
:08054200C2F98F9A30F9FD2285
:1003D7008F1D8E1C8D1B8C1A538EF7438901D28C6F
:1003E700E4FFFEFDFCAB1DAA1CA91BA81AC3120043
:1003F700F46025758A7E758CFF308DFDC28DE51DF5
:1004070024FFF51DE51C34FFF51CE51B34FFF51B28
:0B041700E51A34FFF51A80C8C28C22E1
:100422008F348E338D328C31538EF7438901D28CC7
:10043200E4FFFEFDFCAB34AA33A932A831C312009B
:10044200F46025758ACA758CFA308DFDC28DE5344B
:1004520024FFF534E53334FFF533E53234FFF5326A
:0B046200E53134FFF53180C8C28C2268
:10046D008F248E238D228C21538EEF438910D28EB3
:10047D00E4FFFEFDFCAB24AA23A922A821C3120090
:10048D00F46025758BEA758DCB308FFDC28FE52419
:10049D0024FFF524E52334FFF523E52234FFF5226F
:0B04AD00E52134FFF52180C8C28E223B
:100389008F288E278D268C2553C9BF53C9DF43C9B2
:1003990010D2CAE4FFFEFDFCAB28AA27A926A8258E
:1003A900C31200F4602575CC3075CDF830CFFDC28D
:1003B900CFE52824FFF528E52734FFF527E526347E
:0E03C900FFF526E52534FFF52580C8C2CA22BF
:1002E9008F2C8E2B8D2A8C2975C40743C408E4FFF3
:1002F900FEFDFCAB2CAA2BA92AA829C31200F46085
:100309002B75C52C75C6CFE5C45410641070F8530D
:10031900C4EFE52C24FFF52CE52B34FFF52BE52A5A
:1003290034FFF52AE52934FFF52980C253C4F722A1
:100339008F308E2F8D2E8C2D75C40743C408E4FF92
:10034900FEFDFCAB30AA2FA92EA82DC31200F46024
:100359002B75C5D875C6FFE5C45410641070F853E1
:10036900C4EFE53024FFF530E52F34FFF52FE52EF6
:1003790034FFF52EE52D34FFF52D80C253C4F72245
:03000000020118E2
:1001180075C7AA75C75575FD5A75C7AA75C75575A8
:10012800FDA5787FE4F6D8FD9000007FFF7E03E40C
:0C013800F0A3DFFCDEFA75813402017FC9
:100144000204B8E493A3F8E493A34003F68001F215
:1001540008DFF48029E493A3F85407240CC8C333BC
:10016400C4540F4420C8834004F456800146F6DF8B
:10017400E4800B0102040810204080900003E47E18
:10018400019360BCA3FF543F30E509541FFEE49380
:10019400A360010ECF54C025E060A840B8E493A347
:1001A400FAE493A3F8E493A3C8C582C8CAC583CA72
:1001B400F0A3C8C582C8CAC583CADFE9DEE780BE2A
:01000C0000F3
:1000260075F008758200EF2FFFEE33FECD33CDCC91
:1000360033CCC58233C5829BED9AEC99E582984014
:100046000CF582EE9BFEED9AFDEC99FC0FD5F0D6F1
:10005600E4CEFBE4CDFAE4CCF9A88222B800C1B91B
:100066000059BA002DEC8BF084CFCECDFCE5F0CB59
:10007600F97818EF2FFFEE33FEED33FDEC33FCEB92
:1000860033FB10D703994004EB99FB0FD8E5E4F94D
:10009600FA227818EF2FFFEE33FEED33FDEC33FC3A
:1000A600C933C910D7059BE99A4007EC9BFCE99A2E
:1000B600F90FD8E0E4C9FAE4CCFB2275F010EF2F73
:1000C600FFEE33FEED33FDCC33CCC833C810D70773
:1000D6009BEC9AE899400AED9BFDEC9AFCE899F8AE
:0E00E6000FD5F0DAE4CDFBE4CCFAE4C8F92241
:1000F400EB9FF5F0EA9E42F0E99D42F0E89C45F062
:0101040022D8
:10010500E8600FECC313FCED13FDEE13FEEF13FFD8
:03011500D8F122FC
:00000001FF
